{
	"src/Bank.sol": {
		"Bank": {
			"abi": [
				{
					"inputs": [],
					"stateMutability": "nonpayable",
					"type": "constructor"
				},
				{
					"anonymous": false,
					"inputs": [
						{
							"indexed": true,
							"internalType": "address",
							"name": "user",
							"type": "address"
						},
						{
							"indexed": false,
							"internalType": "uint256",
							"name": "amount",
							"type": "uint256"
						}
					],
					"name": "Deposit",
					"type": "event"
				},
				{
					"anonymous": false,
					"inputs": [
						{
							"indexed": true,
							"internalType": "address",
							"name": "user",
							"type": "address"
						},
						{
							"indexed": false,
							"internalType": "uint256",
							"name": "amount",
							"type": "uint256"
						}
					],
					"name": "Withdraw",
					"type": "event"
				},
				{
					"inputs": [
						{
							"internalType": "address",
							"name": "",
							"type": "address"
						}
					],
					"name": "balances",
					"outputs": [
						{
							"internalType": "uint256",
							"name": "",
							"type": "uint256"
						}
					],
					"stateMutability": "view",
					"type": "function"
				},
				{
					"inputs": [],
					"name": "deposit",
					"outputs": [],
					"stateMutability": "payable",
					"type": "function"
				},
				{
					"inputs": [],
					"name": "getTopDepositUsers",
					"outputs": [
						{
							"internalType": "address[3]",
							"name": "",
							"type": "address[3]"
						},
						{
							"internalType": "uint256[3]",
							"name": "",
							"type": "uint256[3]"
						}
					],
					"stateMutability": "view",
					"type": "function"
				},
				{
					"inputs": [],
					"name": "owner",
					"outputs": [
						{
							"internalType": "address",
							"name": "",
							"type": "address"
						}
					],
					"stateMutability": "view",
					"type": "function"
				},
				{
					"inputs": [
						{
							"internalType": "uint256",
							"name": "",
							"type": "uint256"
						}
					],
					"name": "topDepositUsers",
					"outputs": [
						{
							"internalType": "address",
							"name": "",
							"type": "address"
						}
					],
					"stateMutability": "view",
					"type": "function"
				},
				{
					"inputs": [
						{
							"internalType": "address",
							"name": "user",
							"type": "address"
						},
						{
							"internalType": "uint256",
							"name": "amount",
							"type": "uint256"
						}
					],
					"name": "withdraw",
					"outputs": [],
					"stateMutability": "nonpayable",
					"type": "function"
				},
				{
					"stateMutability": "payable",
					"type": "receive"
				}
			],
			"devdoc": {
				"kind": "dev",
				"methods": {},
				"version": 1
			},
			"evm": {
				"assembly": "    /* \"src/Bank.sol\":365:4033  contract Bank {... */\n  mstore(0x40, 0x80)\n    /* \"src/Bank.sol\":937:986  constructor() {... */\n  callvalue\n  dup1\n  iszero\n  tag_1\n  jumpi\n  0x00\n  dup1\n  revert\ntag_1:\n  pop\n    /* \"src/Bank.sol\":969:979  msg.sender */\n  caller\n    /* \"src/Bank.sol\":961:966  owner */\n  0x00\n  dup1\n    /* \"src/Bank.sol\":961:979  owner = msg.sender */\n  0x0100\n  exp\n  dup2\n  sload\n  dup2\n  0xffffffffffffffffffffffffffffffffffffffff\n  mul\n  not\n  and\n  swap1\n  dup4\n  0xffffffffffffffffffffffffffffffffffffffff\n  and\n  mul\n  or\n  swap1\n  sstore\n  pop\n    /* \"src/Bank.sol\":365:4033  contract Bank {... */\n  dataSize(sub_0)\n  dup1\n  dataOffset(sub_0)\n  0x00\n  codecopy\n  0x00\n  return\nstop\n\nsub_0: assembly {\n        /* \"src/Bank.sol\":365:4033  contract Bank {... */\n      mstore(0x40, 0x80)\n      jumpi(tag_1, lt(calldatasize, 0x04))\n      shr(0xe0, calldataload(0x00))\n      dup1\n      0x27e235e3\n      eq\n      tag_3\n      jumpi\n      dup1\n      0x836c4bd9\n      eq\n      tag_4\n      jumpi\n      dup1\n      0x8da5cb5b\n      eq\n      tag_5\n      jumpi\n      dup1\n      0xb986363e\n      eq\n      tag_6\n      jumpi\n      dup1\n      0xd0e30db0\n      eq\n      tag_7\n      jumpi\n      dup1\n      0xf3fef3a3\n      eq\n      tag_8\n      jumpi\n      jump(tag_2)\n    tag_1:\n      jumpi(tag_2, calldatasize)\n        /* \"src/Bank.sol\":4015:4024  deposit() */\n      tag_11\n        /* \"src/Bank.sol\":4015:4022  deposit */\n      tag_12\n        /* \"src/Bank.sol\":4015:4024  deposit() */\n      jump\t// in\n    tag_11:\n        /* \"src/Bank.sol\":365:4033  contract Bank {... */\n      stop\n    tag_2:\n      0x00\n      dup1\n      revert\n        /* \"src/Bank.sol\":577:620  mapping(address => uint256) public balances */\n    tag_3:\n      callvalue\n      dup1\n      iszero\n      tag_13\n      jumpi\n      0x00\n      dup1\n      revert\n    tag_13:\n      pop\n      tag_14\n      0x04\n      dup1\n      calldatasize\n      sub\n      dup2\n      add\n      swap1\n      tag_15\n      swap2\n      swap1\n      tag_16\n      jump\t// in\n    tag_15:\n      tag_17\n      jump\t// in\n    tag_14:\n      mload(0x40)\n      tag_18\n      swap2\n      swap1\n      tag_19\n      jump\t// in\n    tag_18:\n      mload(0x40)\n      dup1\n      swap2\n      sub\n      swap1\n      return\n        /* \"src/Bank.sol\":626:659  address[3] public topDepositUsers */\n    tag_4:\n      callvalue\n      dup1\n      iszero\n      tag_20\n      jumpi\n      0x00\n      dup1\n      revert\n    tag_20:\n      pop\n      tag_21\n      0x04\n      dup1\n      calldatasize\n      sub\n      dup2\n      add\n      swap1\n      tag_22\n      swap2\n      swap1\n      tag_23\n      jump\t// in\n    tag_22:\n      tag_24\n      jump\t// in\n    tag_21:\n      mload(0x40)\n      tag_25\n      swap2\n      swap1\n      tag_26\n      jump\t// in\n    tag_25:\n      mload(0x40)\n      dup1\n      swap2\n      sub\n      swap1\n      return\n        /* \"src/Bank.sol\":473:493  address public owner */\n    tag_5:\n      callvalue\n      dup1\n      iszero\n      tag_27\n      jumpi\n      0x00\n      dup1\n      revert\n    tag_27:\n      pop\n      tag_28\n      tag_29\n      jump\t// in\n    tag_28:\n      mload(0x40)\n      tag_30\n      swap2\n      swap1\n      tag_26\n      jump\t// in\n    tag_30:\n      mload(0x40)\n      dup1\n      swap2\n      sub\n      swap1\n      return\n        /* \"src/Bank.sol\":3483:3824  function getTopDepositUsers()... */\n    tag_6:\n      callvalue\n      dup1\n      iszero\n      tag_31\n      jumpi\n      0x00\n      dup1\n      revert\n    tag_31:\n      pop\n      tag_32\n      tag_33\n      jump\t// in\n    tag_32:\n      mload(0x40)\n      tag_34\n      swap3\n      swap2\n      swap1\n      tag_35\n      jump\t// in\n    tag_34:\n      mload(0x40)\n      dup1\n      swap2\n      sub\n      swap1\n      return\n        /* \"src/Bank.sol\":1316:1594  function deposit() public payable {... */\n    tag_7:\n      tag_36\n      tag_12\n      jump\t// in\n    tag_36:\n      stop\n        /* \"src/Bank.sol\":1767:2107  function withdraw(address user, uint256 amount) external onlyOwner {... */\n    tag_8:\n      callvalue\n      dup1\n      iszero\n      tag_37\n      jumpi\n      0x00\n      dup1\n      revert\n    tag_37:\n      pop\n      tag_38\n      0x04\n      dup1\n      calldatasize\n      sub\n      dup2\n      add\n      swap1\n      tag_39\n      swap2\n      swap1\n      tag_40\n      jump\t// in\n    tag_39:\n      tag_41\n      jump\t// in\n    tag_38:\n      stop\n        /* \"src/Bank.sol\":1316:1594  function deposit() public payable {... */\n    tag_12:\n        /* \"src/Bank.sol\":1380:1381  0 */\n      0x00\n        /* \"src/Bank.sol\":1368:1377  msg.value */\n      callvalue\n        /* \"src/Bank.sol\":1368:1381  msg.value > 0 */\n      gt\n        /* \"src/Bank.sol\":1360:1423  require(msg.value > 0, \"Deposit amount must be greater than 0\") */\n      tag_43\n      jumpi\n      mload(0x40)\n      0x08c379a000000000000000000000000000000000000000000000000000000000\n      dup2\n      mstore\n      0x04\n      add\n      tag_44\n      swap1\n      tag_45\n      jump\t// in\n    tag_44:\n      mload(0x40)\n      dup1\n      swap2\n      sub\n      swap1\n      revert\n    tag_43:\n        /* \"src/Bank.sol\":1457:1466  msg.value */\n      callvalue\n        /* \"src/Bank.sol\":1433:1441  balances */\n      0x01\n        /* \"src/Bank.sol\":1433:1453  balances[msg.sender] */\n      0x00\n        /* \"src/Bank.sol\":1442:1452  msg.sender */\n      caller\n        /* \"src/Bank.sol\":1433:1453  balances[msg.sender] */\n      0xffffffffffffffffffffffffffffffffffffffff\n      and\n      0xffffffffffffffffffffffffffffffffffffffff\n      and\n      dup2\n      mstore\n      0x20\n      add\n      swap1\n      dup2\n      mstore\n      0x20\n      add\n      0x00\n      keccak256\n      0x00\n        /* \"src/Bank.sol\":1433:1466  balances[msg.sender] += msg.value */\n      dup3\n      dup3\n      sload\n      tag_46\n      swap2\n      swap1\n      tag_47\n      jump\t// in\n    tag_46:\n      swap3\n      pop\n      pop\n      dup2\n      swap1\n      sstore\n      pop\n        /* \"src/Bank.sol\":1489:1499  msg.sender */\n      caller\n        /* \"src/Bank.sol\":1481:1511  Deposit(msg.sender, msg.value) */\n      0xffffffffffffffffffffffffffffffffffffffff\n      and\n      0xe1fffcc4923d04b559f4d29a8bfc6cda04eb5b0d3c460751c2402c5c5cc9109c\n        /* \"src/Bank.sol\":1501:1510  msg.value */\n      callvalue\n        /* \"src/Bank.sol\":1481:1511  Deposit(msg.sender, msg.value) */\n      mload(0x40)\n      tag_48\n      swap2\n      swap1\n      tag_19\n      jump\t// in\n    tag_48:\n      mload(0x40)\n      dup1\n      swap2\n      sub\n      swap1\n      log2\n        /* \"src/Bank.sol\":1561:1587  updateTopUsers(msg.sender) */\n      tag_49\n        /* \"src/Bank.sol\":1576:1586  msg.sender */\n      caller\n        /* \"src/Bank.sol\":1561:1575  updateTopUsers */\n      tag_50\n        /* \"src/Bank.sol\":1561:1587  updateTopUsers(msg.sender) */\n      jump\t// in\n    tag_49:\n        /* \"src/Bank.sol\":1316:1594  function deposit() public payable {... */\n      jump\t// out\n        /* \"src/Bank.sol\":577:620  mapping(address => uint256) public balances */\n    tag_17:\n      mstore(0x20, 0x01)\n      dup1\n      0x00\n      mstore\n      keccak256(0x00, 0x40)\n      0x00\n      swap2\n      pop\n      swap1\n      pop\n      sload\n      dup2\n      jump\t// out\n        /* \"src/Bank.sol\":626:659  address[3] public topDepositUsers */\n    tag_24:\n      0x02\n      dup2\n      0x03\n      dup2\n      lt\n      tag_51\n      jumpi\n      0x00\n      dup1\n      revert\n    tag_51:\n      add\n      0x00\n      swap2\n      pop\n      sload\n      swap1\n      0x0100\n      exp\n      swap1\n      div\n      0xffffffffffffffffffffffffffffffffffffffff\n      and\n      dup2\n      jump\t// out\n        /* \"src/Bank.sol\":473:493  address public owner */\n    tag_29:\n      0x00\n      dup1\n      sload\n      swap1\n      0x0100\n      exp\n      swap1\n      div\n      0xffffffffffffffffffffffffffffffffffffffff\n      and\n      dup2\n      jump\t// out\n        /* \"src/Bank.sol\":3483:3824  function getTopDepositUsers()... */\n    tag_33:\n        /* \"src/Bank.sol\":3560:3577  address[3] memory */\n      tag_53\n      tag_54\n      jump\t// in\n    tag_53:\n        /* \"src/Bank.sol\":3579:3596  uint256[3] memory */\n      tag_55\n      tag_56\n      jump\t// in\n    tag_55:\n        /* \"src/Bank.sol\":3612:3640  uint256[3] memory topAmounts */\n      tag_58\n      tag_56\n      jump\t// in\n    tag_58:\n        /* \"src/Bank.sol\":3655:3664  uint256 i */\n      0x00\n        /* \"src/Bank.sol\":3650:3772  for (uint256 i = 0; i < topDepositUsers.length; i++) {... */\n    tag_59:\n        /* \"src/Bank.sol\":3674:3696  topDepositUsers.length */\n      0x03\n        /* \"src/Bank.sol\":3670:3671  i */\n      dup2\n        /* \"src/Bank.sol\":3670:3696  i < topDepositUsers.length */\n      lt\n        /* \"src/Bank.sol\":3650:3772  for (uint256 i = 0; i < topDepositUsers.length; i++) {... */\n      iszero\n      tag_60\n      jumpi\n        /* \"src/Bank.sol\":3733:3741  balances */\n      0x01\n        /* \"src/Bank.sol\":3733:3761  balances[topDepositUsers[i]] */\n      0x00\n        /* \"src/Bank.sol\":3742:3757  topDepositUsers */\n      0x02\n        /* \"src/Bank.sol\":3758:3759  i */\n      dup4\n        /* \"src/Bank.sol\":3742:3760  topDepositUsers[i] */\n      0x03\n      dup2\n      lt\n      tag_62\n      jumpi\n      tag_63\n      tag_64\n      jump\t// in\n    tag_63:\n    tag_62:\n      add\n      0x00\n      swap1\n      sload\n      swap1\n      0x0100\n      exp\n      swap1\n      div\n      0xffffffffffffffffffffffffffffffffffffffff\n      and\n        /* \"src/Bank.sol\":3733:3761  balances[topDepositUsers[i]] */\n      0xffffffffffffffffffffffffffffffffffffffff\n      and\n      0xffffffffffffffffffffffffffffffffffffffff\n      and\n      dup2\n      mstore\n      0x20\n      add\n      swap1\n      dup2\n      mstore\n      0x20\n      add\n      0x00\n      keccak256\n      sload\n        /* \"src/Bank.sol\":3717:3727  topAmounts */\n      dup3\n        /* \"src/Bank.sol\":3728:3729  i */\n      dup3\n        /* \"src/Bank.sol\":3717:3730  topAmounts[i] */\n      0x03\n      dup2\n      lt\n      tag_66\n      jumpi\n      tag_67\n      tag_64\n      jump\t// in\n    tag_67:\n    tag_66:\n      0x20\n      mul\n      add\n        /* \"src/Bank.sol\":3717:3761  topAmounts[i] = balances[topDepositUsers[i]] */\n      dup2\n      dup2\n      mstore\n      pop\n      pop\n        /* \"src/Bank.sol\":3698:3701  i++ */\n      dup1\n      dup1\n      0x01\n      add\n      swap2\n      pop\n      pop\n        /* \"src/Bank.sol\":3650:3772  for (uint256 i = 0; i < topDepositUsers.length; i++) {... */\n      jump(tag_59)\n    tag_60:\n      pop\n        /* \"src/Bank.sol\":3789:3804  topDepositUsers */\n      0x02\n        /* \"src/Bank.sol\":3806:3816  topAmounts */\n      dup2\n        /* \"src/Bank.sol\":3781:3817  return (topDepositUsers, topAmounts) */\n      dup2\n      0x03\n      dup1\n      0x20\n      mul\n      mload(0x40)\n      swap1\n      dup2\n      add\n      0x40\n      mstore\n      dup1\n      swap3\n      swap2\n      swap1\n      dup3\n      0x03\n      dup1\n      iszero\n      tag_68\n      jumpi\n      0x20\n      mul\n      dup3\n      add\n      swap2\n    tag_69:\n      dup2\n      0x00\n      swap1\n      sload\n      swap1\n      0x0100\n      exp\n      swap1\n      div\n      0xffffffffffffffffffffffffffffffffffffffff\n      and\n      0xffffffffffffffffffffffffffffffffffffffff\n      and\n      dup2\n      mstore\n      0x20\n      add\n      swap1\n      0x01\n      add\n      swap1\n      dup1\n      dup4\n      gt\n      tag_69\n      jumpi\n    tag_68:\n      pop\n      pop\n      pop\n      pop\n      pop\n      swap2\n      pop\n      swap3\n      pop\n      swap3\n      pop\n      pop\n        /* \"src/Bank.sol\":3483:3824  function getTopDepositUsers()... */\n      swap1\n      swap2\n      jump\t// out\n        /* \"src/Bank.sol\":1767:2107  function withdraw(address user, uint256 amount) external onlyOwner {... */\n    tag_41:\n        /* \"src/Bank.sol\":1073:1078  owner */\n      0x00\n      dup1\n      sload\n      swap1\n      0x0100\n      exp\n      swap1\n      div\n      0xffffffffffffffffffffffffffffffffffffffff\n      and\n        /* \"src/Bank.sol\":1059:1078  msg.sender == owner */\n      0xffffffffffffffffffffffffffffffffffffffff\n      and\n        /* \"src/Bank.sol\":1059:1069  msg.sender */\n      caller\n        /* \"src/Bank.sol\":1059:1078  msg.sender == owner */\n      0xffffffffffffffffffffffffffffffffffffffff\n      and\n      eq\n        /* \"src/Bank.sol\":1051:1116  require(msg.sender == owner, \"Only owner can call this function\") */\n      tag_71\n      jumpi\n      mload(0x40)\n      0x08c379a000000000000000000000000000000000000000000000000000000000\n      dup2\n      mstore\n      0x04\n      add\n      tag_72\n      swap1\n      tag_73\n      jump\t// in\n    tag_72:\n      mload(0x40)\n      dup1\n      swap2\n      sub\n      swap1\n      revert\n    tag_71:\n        /* \"src/Bank.sol\":1861:1862  0 */\n      0x00\n        /* \"src/Bank.sol\":1852:1858  amount */\n      dup2\n        /* \"src/Bank.sol\":1852:1862  amount > 0 */\n      gt\n        /* \"src/Bank.sol\":1844:1905  require(amount > 0, \"Withdraw amount must be greater than 0\") */\n      tag_75\n      jumpi\n      mload(0x40)\n      0x08c379a000000000000000000000000000000000000000000000000000000000\n      dup2\n      mstore\n      0x04\n      add\n      tag_76\n      swap1\n      tag_77\n      jump\t// in\n    tag_76:\n      mload(0x40)\n      dup1\n      swap2\n      sub\n      swap1\n      revert\n    tag_75:\n        /* \"src/Bank.sol\":1946:1967  address(this).balance */\n      selfbalance\n        /* \"src/Bank.sol\":1936:1942  amount */\n      dup2\n        /* \"src/Bank.sol\":1936:1967  amount <= address(this).balance */\n      gt\n      iszero\n        /* \"src/Bank.sol\":1915:2022  require(... */\n      tag_78\n      jumpi\n      mload(0x40)\n      0x08c379a000000000000000000000000000000000000000000000000000000000\n      dup2\n      mstore\n      0x04\n      add\n      tag_79\n      swap1\n      tag_80\n      jump\t// in\n    tag_79:\n      mload(0x40)\n      dup1\n      swap2\n      sub\n      swap1\n      revert\n    tag_78:\n        /* \"src/Bank.sol\":2041:2045  user */\n      dup2\n        /* \"src/Bank.sol\":2033:2055  payable(user).transfer */\n      0xffffffffffffffffffffffffffffffffffffffff\n      and\n        /* \"src/Bank.sol\":2033:2063  payable(user).transfer(amount) */\n      0x08fc\n        /* \"src/Bank.sol\":2056:2062  amount */\n      dup3\n        /* \"src/Bank.sol\":2033:2063  payable(user).transfer(amount) */\n      swap1\n      dup2\n      iszero\n      mul\n      swap1\n      mload(0x40)\n      0x00\n      mload(0x40)\n      dup1\n      dup4\n      sub\n      dup2\n      dup6\n      dup9\n      dup9\n      call\n      swap4\n      pop\n      pop\n      pop\n      pop\n      iszero\n      dup1\n      iszero\n      tag_82\n      jumpi\n      returndatasize\n      0x00\n      dup1\n      returndatacopy\n      revert(0x00, returndatasize)\n    tag_82:\n      pop\n        /* \"src/Bank.sol\":2087:2091  user */\n      dup2\n        /* \"src/Bank.sol\":2078:2100  Withdraw(user, amount) */\n      0xffffffffffffffffffffffffffffffffffffffff\n      and\n      0x884edad9ce6fa2440d8a54cc123490eb96d2768479d49ff9c7366125a9424364\n        /* \"src/Bank.sol\":2093:2099  amount */\n      dup3\n        /* \"src/Bank.sol\":2078:2100  Withdraw(user, amount) */\n      mload(0x40)\n      tag_83\n      swap2\n      swap1\n      tag_19\n      jump\t// in\n    tag_83:\n      mload(0x40)\n      dup1\n      swap2\n      sub\n      swap1\n      log2\n        /* \"src/Bank.sol\":1767:2107  function withdraw(address user, uint256 amount) external onlyOwner {... */\n      pop\n      pop\n      jump\t// out\n        /* \"src/Bank.sol\":2253:2799  function updateTopUsers(address user) internal {... */\n    tag_50:\n        /* \"src/Bank.sol\":2310:2329  uint256 userBalance */\n      0x00\n        /* \"src/Bank.sol\":2332:2340  balances */\n      0x01\n        /* \"src/Bank.sol\":2332:2346  balances[user] */\n      0x00\n        /* \"src/Bank.sol\":2341:2345  user */\n      dup4\n        /* \"src/Bank.sol\":2332:2346  balances[user] */\n      0xffffffffffffffffffffffffffffffffffffffff\n      and\n      0xffffffffffffffffffffffffffffffffffffffff\n      and\n      dup2\n      mstore\n      0x20\n      add\n      swap1\n      dup2\n      mstore\n      0x20\n      add\n      0x00\n      keccak256\n      sload\n        /* \"src/Bank.sol\":2310:2346  uint256 userBalance = balances[user] */\n      swap1\n      pop\n        /* \"src/Bank.sol\":2413:2422  uint256 i */\n      0x00\n        /* \"src/Bank.sol\":2408:2588  for (uint256 i = 0; i < topDepositUsers.length; i++) {... */\n    tag_85:\n        /* \"src/Bank.sol\":2432:2454  topDepositUsers.length */\n      0x03\n        /* \"src/Bank.sol\":2428:2429  i */\n      dup2\n        /* \"src/Bank.sol\":2428:2454  i < topDepositUsers.length */\n      lt\n        /* \"src/Bank.sol\":2408:2588  for (uint256 i = 0; i < topDepositUsers.length; i++) {... */\n      iszero\n      tag_86\n      jumpi\n        /* \"src/Bank.sol\":2487:2502  topDepositUsers */\n      0x02\n        /* \"src/Bank.sol\":2503:2504  i */\n      dup2\n        /* \"src/Bank.sol\":2487:2505  topDepositUsers[i] */\n      0x03\n      dup2\n      lt\n      tag_88\n      jumpi\n      tag_89\n      tag_64\n      jump\t// in\n    tag_89:\n    tag_88:\n      add\n      0x00\n      swap1\n      sload\n      swap1\n      0x0100\n      exp\n      swap1\n      div\n      0xffffffffffffffffffffffffffffffffffffffff\n      and\n        /* \"src/Bank.sol\":2479:2505  user == topDepositUsers[i] */\n      0xffffffffffffffffffffffffffffffffffffffff\n      and\n        /* \"src/Bank.sol\":2479:2483  user */\n      dup4\n        /* \"src/Bank.sol\":2479:2505  user == topDepositUsers[i] */\n      0xffffffffffffffffffffffffffffffffffffffff\n      and\n      sub\n        /* \"src/Bank.sol\":2475:2578  if (user == topDepositUsers[i]) {... */\n      tag_91\n      jumpi\n        /* \"src/Bank.sol\":2525:2539  sortTopUsers() */\n      tag_92\n        /* \"src/Bank.sol\":2525:2537  sortTopUsers */\n      tag_93\n        /* \"src/Bank.sol\":2525:2539  sortTopUsers() */\n      jump\t// in\n    tag_92:\n        /* \"src/Bank.sol\":2557:2564  return; */\n      pop\n      pop\n      jump(tag_84)\n        /* \"src/Bank.sol\":2475:2578  if (user == topDepositUsers[i]) {... */\n    tag_91:\n        /* \"src/Bank.sol\":2456:2459  i++ */\n      dup1\n      dup1\n      0x01\n      add\n      swap2\n      pop\n      pop\n        /* \"src/Bank.sol\":2408:2588  for (uint256 i = 0; i < topDepositUsers.length; i++) {... */\n      jump(tag_85)\n    tag_86:\n      pop\n        /* \"src/Bank.sol\":2685:2693  balances */\n      0x01\n        /* \"src/Bank.sol\":2685:2713  balances[topDepositUsers[2]] */\n      0x00\n        /* \"src/Bank.sol\":2694:2709  topDepositUsers */\n      0x02\n        /* \"src/Bank.sol\":2710:2711  2 */\n      dup1\n        /* \"src/Bank.sol\":2694:2712  topDepositUsers[2] */\n      0x03\n      dup2\n      lt\n      tag_94\n      jumpi\n      tag_95\n      tag_64\n      jump\t// in\n    tag_95:\n    tag_94:\n      add\n      0x00\n      swap1\n      sload\n      swap1\n      0x0100\n      exp\n      swap1\n      div\n      0xffffffffffffffffffffffffffffffffffffffff\n      and\n        /* \"src/Bank.sol\":2685:2713  balances[topDepositUsers[2]] */\n      0xffffffffffffffffffffffffffffffffffffffff\n      and\n      0xffffffffffffffffffffffffffffffffffffffff\n      and\n      dup2\n      mstore\n      0x20\n      add\n      swap1\n      dup2\n      mstore\n      0x20\n      add\n      0x00\n      keccak256\n      sload\n        /* \"src/Bank.sol\":2671:2682  userBalance */\n      dup2\n        /* \"src/Bank.sol\":2671:2713  userBalance > balances[topDepositUsers[2]] */\n      gt\n        /* \"src/Bank.sol\":2667:2793  if (userBalance > balances[topDepositUsers[2]]) {... */\n      iszero\n      tag_97\n      jumpi\n        /* \"src/Bank.sol\":2750:2754  user */\n      dup2\n        /* \"src/Bank.sol\":2729:2744  topDepositUsers */\n      0x02\n        /* \"src/Bank.sol\":2745:2746  2 */\n      dup1\n        /* \"src/Bank.sol\":2729:2747  topDepositUsers[2] */\n      0x03\n      dup2\n      lt\n      tag_98\n      jumpi\n      tag_99\n      tag_64\n      jump\t// in\n    tag_99:\n    tag_98:\n      add\n      0x00\n        /* \"src/Bank.sol\":2729:2754  topDepositUsers[2] = user */\n      0x0100\n      exp\n      dup2\n      sload\n      dup2\n      0xffffffffffffffffffffffffffffffffffffffff\n      mul\n      not\n      and\n      swap1\n      dup4\n      0xffffffffffffffffffffffffffffffffffffffff\n      and\n      mul\n      or\n      swap1\n      sstore\n      pop\n        /* \"src/Bank.sol\":2768:2782  sortTopUsers() */\n      tag_101\n        /* \"src/Bank.sol\":2768:2780  sortTopUsers */\n      tag_93\n        /* \"src/Bank.sol\":2768:2782  sortTopUsers() */\n      jump\t// in\n    tag_101:\n        /* \"src/Bank.sol\":2667:2793  if (userBalance > balances[topDepositUsers[2]]) {... */\n    tag_97:\n        /* \"src/Bank.sol\":2300:2799  {... */\n      pop\n        /* \"src/Bank.sol\":2253:2799  function updateTopUsers(address user) internal {... */\n    tag_84:\n      pop\n      jump\t// out\n        /* \"src/Bank.sol\":2839:3313  function sortTopUsers() internal {... */\n    tag_93:\n        /* \"src/Bank.sol\":2887:2896  uint256 i */\n      0x00\n        /* \"src/Bank.sol\":2882:3307  for (uint256 i = 0; i < topDepositUsers.length - 1; i++) {... */\n    tag_103:\n        /* \"src/Bank.sol\":2931:2932  1 */\n      0x01\n        /* \"src/Bank.sol\":2906:2928  topDepositUsers.length */\n      0x03\n        /* \"src/Bank.sol\":2906:2932  topDepositUsers.length - 1 */\n      tag_106\n      swap2\n      swap1\n      tag_107\n      jump\t// in\n    tag_106:\n        /* \"src/Bank.sol\":2902:2903  i */\n      dup2\n        /* \"src/Bank.sol\":2902:2932  i < topDepositUsers.length - 1 */\n      lt\n        /* \"src/Bank.sol\":2882:3307  for (uint256 i = 0; i < topDepositUsers.length - 1; i++) {... */\n      iszero\n      tag_104\n      jumpi\n        /* \"src/Bank.sol\":2958:2967  uint256 j */\n      0x00\n        /* \"src/Bank.sol\":2974:2975  1 */\n      0x01\n        /* \"src/Bank.sol\":2970:2971  i */\n      dup3\n        /* \"src/Bank.sol\":2970:2975  i + 1 */\n      tag_111\n      swap2\n      swap1\n      tag_47\n      jump\t// in\n    tag_111:\n        /* \"src/Bank.sol\":2958:2975  uint256 j = i + 1 */\n      swap1\n      pop\n        /* \"src/Bank.sol\":2953:3297  for (uint256 j = i + 1; j < topDepositUsers.length; j++) {... */\n    tag_108:\n        /* \"src/Bank.sol\":2981:3003  topDepositUsers.length */\n      0x03\n        /* \"src/Bank.sol\":2977:2978  j */\n      dup2\n        /* \"src/Bank.sol\":2977:3003  j < topDepositUsers.length */\n      lt\n        /* \"src/Bank.sol\":2953:3297  for (uint256 j = i + 1; j < topDepositUsers.length; j++) {... */\n      iszero\n      tag_109\n      jumpi\n        /* \"src/Bank.sol\":3063:3071  balances */\n      0x01\n        /* \"src/Bank.sol\":3063:3091  balances[topDepositUsers[j]] */\n      0x00\n        /* \"src/Bank.sol\":3072:3087  topDepositUsers */\n      0x02\n        /* \"src/Bank.sol\":3088:3089  j */\n      dup4\n        /* \"src/Bank.sol\":3072:3090  topDepositUsers[j] */\n      0x03\n      dup2\n      lt\n      tag_112\n      jumpi\n      tag_113\n      tag_64\n      jump\t// in\n    tag_113:\n    tag_112:\n      add\n      0x00\n      swap1\n      sload\n      swap1\n      0x0100\n      exp\n      swap1\n      div\n      0xffffffffffffffffffffffffffffffffffffffff\n      and\n        /* \"src/Bank.sol\":3063:3091  balances[topDepositUsers[j]] */\n      0xffffffffffffffffffffffffffffffffffffffff\n      and\n      0xffffffffffffffffffffffffffffffffffffffff\n      and\n      dup2\n      mstore\n      0x20\n      add\n      swap1\n      dup2\n      mstore\n      0x20\n      add\n      0x00\n      keccak256\n      sload\n        /* \"src/Bank.sol\":3032:3040  balances */\n      0x01\n        /* \"src/Bank.sol\":3032:3060  balances[topDepositUsers[i]] */\n      0x00\n        /* \"src/Bank.sol\":3041:3056  topDepositUsers */\n      0x02\n        /* \"src/Bank.sol\":3057:3058  i */\n      dup6\n        /* \"src/Bank.sol\":3041:3059  topDepositUsers[i] */\n      0x03\n      dup2\n      lt\n      tag_115\n      jumpi\n      tag_116\n      tag_64\n      jump\t// in\n    tag_116:\n    tag_115:\n      add\n      0x00\n      swap1\n      sload\n      swap1\n      0x0100\n      exp\n      swap1\n      div\n      0xffffffffffffffffffffffffffffffffffffffff\n      and\n        /* \"src/Bank.sol\":3032:3060  balances[topDepositUsers[i]] */\n      0xffffffffffffffffffffffffffffffffffffffff\n      and\n      0xffffffffffffffffffffffffffffffffffffffff\n      and\n      dup2\n      mstore\n      0x20\n      add\n      swap1\n      dup2\n      mstore\n      0x20\n      add\n      0x00\n      keccak256\n      sload\n        /* \"src/Bank.sol\":3032:3091  balances[topDepositUsers[i]] < balances[topDepositUsers[j]] */\n      lt\n        /* \"src/Bank.sol\":3028:3283  if (balances[topDepositUsers[i]] < balances[topDepositUsers[j]]) {... */\n      iszero\n      tag_118\n      jumpi\n        /* \"src/Bank.sol\":3115:3131  address tempUser */\n      0x00\n        /* \"src/Bank.sol\":3134:3149  topDepositUsers */\n      0x02\n        /* \"src/Bank.sol\":3150:3151  i */\n      dup4\n        /* \"src/Bank.sol\":3134:3152  topDepositUsers[i] */\n      0x03\n      dup2\n      lt\n      tag_119\n      jumpi\n      tag_120\n      tag_64\n      jump\t// in\n    tag_120:\n    tag_119:\n      add\n      0x00\n      swap1\n      sload\n      swap1\n      0x0100\n      exp\n      swap1\n      div\n      0xffffffffffffffffffffffffffffffffffffffff\n      and\n        /* \"src/Bank.sol\":3115:3152  address tempUser = topDepositUsers[i] */\n      swap1\n      pop\n        /* \"src/Bank.sol\":3195:3210  topDepositUsers */\n      0x02\n        /* \"src/Bank.sol\":3211:3212  j */\n      dup3\n        /* \"src/Bank.sol\":3195:3213  topDepositUsers[j] */\n      0x03\n      dup2\n      lt\n      tag_122\n      jumpi\n      tag_123\n      tag_64\n      jump\t// in\n    tag_123:\n    tag_122:\n      add\n      0x00\n      swap1\n      sload\n      swap1\n      0x0100\n      exp\n      swap1\n      div\n      0xffffffffffffffffffffffffffffffffffffffff\n      and\n        /* \"src/Bank.sol\":3174:3189  topDepositUsers */\n      0x02\n        /* \"src/Bank.sol\":3190:3191  i */\n      dup5\n        /* \"src/Bank.sol\":3174:3192  topDepositUsers[i] */\n      0x03\n      dup2\n      lt\n      tag_125\n      jumpi\n      tag_126\n      tag_64\n      jump\t// in\n    tag_126:\n    tag_125:\n      add\n      0x00\n        /* \"src/Bank.sol\":3174:3213  topDepositUsers[i] = topDepositUsers[j] */\n      0x0100\n      exp\n      dup2\n      sload\n      dup2\n      0xffffffffffffffffffffffffffffffffffffffff\n      mul\n      not\n      and\n      swap1\n      dup4\n      0xffffffffffffffffffffffffffffffffffffffff\n      and\n      mul\n      or\n      swap1\n      sstore\n      pop\n        /* \"src/Bank.sol\":3256:3264  tempUser */\n      dup1\n        /* \"src/Bank.sol\":3235:3250  topDepositUsers */\n      0x02\n        /* \"src/Bank.sol\":3251:3252  j */\n      dup4\n        /* \"src/Bank.sol\":3235:3253  topDepositUsers[j] */\n      0x03\n      dup2\n      lt\n      tag_128\n      jumpi\n      tag_129\n      tag_64\n      jump\t// in\n    tag_129:\n    tag_128:\n      add\n      0x00\n        /* \"src/Bank.sol\":3235:3264  topDepositUsers[j] = tempUser */\n      0x0100\n      exp\n      dup2\n      sload\n      dup2\n      0xffffffffffffffffffffffffffffffffffffffff\n      mul\n      not\n      and\n      swap1\n      dup4\n      0xffffffffffffffffffffffffffffffffffffffff\n      and\n      mul\n      or\n      swap1\n      sstore\n      pop\n        /* \"src/Bank.sol\":3093:3283  {... */\n      pop\n        /* \"src/Bank.sol\":3028:3283  if (balances[topDepositUsers[i]] < balances[topDepositUsers[j]]) {... */\n    tag_118:\n        /* \"src/Bank.sol\":3005:3008  j++ */\n      dup1\n      dup1\n      0x01\n      add\n      swap2\n      pop\n      pop\n        /* \"src/Bank.sol\":2953:3297  for (uint256 j = i + 1; j < topDepositUsers.length; j++) {... */\n      jump(tag_108)\n    tag_109:\n      pop\n        /* \"src/Bank.sol\":2934:2937  i++ */\n      dup1\n      dup1\n      0x01\n      add\n      swap2\n      pop\n      pop\n        /* \"src/Bank.sol\":2882:3307  for (uint256 i = 0; i < topDepositUsers.length - 1; i++) {... */\n      jump(tag_103)\n    tag_104:\n      pop\n        /* \"src/Bank.sol\":2839:3313  function sortTopUsers() internal {... */\n      jump\t// out\n    tag_54:\n      mload(0x40)\n      dup1\n      0x60\n      add\n      0x40\n      mstore\n      dup1\n      0x03\n      swap1\n      0x20\n      dup3\n      mul\n      dup1\n      calldatasize\n      dup4\n      calldatacopy\n      dup1\n      dup3\n      add\n      swap2\n      pop\n      pop\n      swap1\n      pop\n      pop\n      swap1\n      jump\t// out\n    tag_56:\n      mload(0x40)\n      dup1\n      0x60\n      add\n      0x40\n      mstore\n      dup1\n      0x03\n      swap1\n      0x20\n      dup3\n      mul\n      dup1\n      calldatasize\n      dup4\n      calldatacopy\n      dup1\n      dup3\n      add\n      swap2\n      pop\n      pop\n      swap1\n      pop\n      pop\n      swap1\n      jump\t// out\n        /* \"#utility.yul\":88:205   */\n    tag_132:\n        /* \"#utility.yul\":197:198   */\n      0x00\n        /* \"#utility.yul\":194:195   */\n      dup1\n        /* \"#utility.yul\":187:199   */\n      revert\n        /* \"#utility.yul\":334:460   */\n    tag_134:\n        /* \"#utility.yul\":371:378   */\n      0x00\n        /* \"#utility.yul\":411:453   */\n      0xffffffffffffffffffffffffffffffffffffffff\n        /* \"#utility.yul\":404:409   */\n      dup3\n        /* \"#utility.yul\":400:454   */\n      and\n        /* \"#utility.yul\":389:454   */\n      swap1\n      pop\n        /* \"#utility.yul\":334:460   */\n      swap2\n      swap1\n      pop\n      jump\t// out\n        /* \"#utility.yul\":466:562   */\n    tag_135:\n        /* \"#utility.yul\":503:510   */\n      0x00\n        /* \"#utility.yul\":532:556   */\n      tag_173\n        /* \"#utility.yul\":550:555   */\n      dup3\n        /* \"#utility.yul\":532:556   */\n      tag_134\n      jump\t// in\n    tag_173:\n        /* \"#utility.yul\":521:556   */\n      swap1\n      pop\n        /* \"#utility.yul\":466:562   */\n      swap2\n      swap1\n      pop\n      jump\t// out\n        /* \"#utility.yul\":568:690   */\n    tag_136:\n        /* \"#utility.yul\":641:665   */\n      tag_175\n        /* \"#utility.yul\":659:664   */\n      dup2\n        /* \"#utility.yul\":641:665   */\n      tag_135\n      jump\t// in\n    tag_175:\n        /* \"#utility.yul\":634:639   */\n      dup2\n        /* \"#utility.yul\":631:666   */\n      eq\n        /* \"#utility.yul\":621:684   */\n      tag_176\n      jumpi\n        /* \"#utility.yul\":680:681   */\n      0x00\n        /* \"#utility.yul\":677:678   */\n      dup1\n        /* \"#utility.yul\":670:682   */\n      revert\n        /* \"#utility.yul\":621:684   */\n    tag_176:\n        /* \"#utility.yul\":568:690   */\n      pop\n      jump\t// out\n        /* \"#utility.yul\":696:835   */\n    tag_137:\n        /* \"#utility.yul\":742:747   */\n      0x00\n        /* \"#utility.yul\":780:786   */\n      dup2\n        /* \"#utility.yul\":767:787   */\n      calldataload\n        /* \"#utility.yul\":758:787   */\n      swap1\n      pop\n        /* \"#utility.yul\":796:829   */\n      tag_178\n        /* \"#utility.yul\":823:828   */\n      dup2\n        /* \"#utility.yul\":796:829   */\n      tag_136\n      jump\t// in\n    tag_178:\n        /* \"#utility.yul\":696:835   */\n      swap3\n      swap2\n      pop\n      pop\n      jump\t// out\n        /* \"#utility.yul\":841:1170   */\n    tag_16:\n        /* \"#utility.yul\":900:906   */\n      0x00\n        /* \"#utility.yul\":949:951   */\n      0x20\n        /* \"#utility.yul\":937:946   */\n      dup3\n        /* \"#utility.yul\":928:935   */\n      dup5\n        /* \"#utility.yul\":924:947   */\n      sub\n        /* \"#utility.yul\":920:952   */\n      slt\n        /* \"#utility.yul\":917:1036   */\n      iszero\n      tag_180\n      jumpi\n        /* \"#utility.yul\":955:1034   */\n      tag_181\n      tag_132\n      jump\t// in\n    tag_181:\n        /* \"#utility.yul\":917:1036   */\n    tag_180:\n        /* \"#utility.yul\":1075:1076   */\n      0x00\n        /* \"#utility.yul\":1100:1153   */\n      tag_182\n        /* \"#utility.yul\":1145:1152   */\n      dup5\n        /* \"#utility.yul\":1136:1142   */\n      dup3\n        /* \"#utility.yul\":1125:1134   */\n      dup6\n        /* \"#utility.yul\":1121:1143   */\n      add\n        /* \"#utility.yul\":1100:1153   */\n      tag_137\n      jump\t// in\n    tag_182:\n        /* \"#utility.yul\":1090:1153   */\n      swap2\n      pop\n        /* \"#utility.yul\":1046:1163   */\n      pop\n        /* \"#utility.yul\":841:1170   */\n      swap3\n      swap2\n      pop\n      pop\n      jump\t// out\n        /* \"#utility.yul\":1176:1253   */\n    tag_138:\n        /* \"#utility.yul\":1213:1220   */\n      0x00\n        /* \"#utility.yul\":1242:1247   */\n      dup2\n        /* \"#utility.yul\":1231:1247   */\n      swap1\n      pop\n        /* \"#utility.yul\":1176:1253   */\n      swap2\n      swap1\n      pop\n      jump\t// out\n        /* \"#utility.yul\":1259:1377   */\n    tag_139:\n        /* \"#utility.yul\":1346:1370   */\n      tag_185\n        /* \"#utility.yul\":1364:1369   */\n      dup2\n        /* \"#utility.yul\":1346:1370   */\n      tag_138\n      jump\t// in\n    tag_185:\n        /* \"#utility.yul\":1341:1344   */\n      dup3\n        /* \"#utility.yul\":1334:1371   */\n      mstore\n        /* \"#utility.yul\":1259:1377   */\n      pop\n      pop\n      jump\t// out\n        /* \"#utility.yul\":1383:1605   */\n    tag_19:\n        /* \"#utility.yul\":1476:1480   */\n      0x00\n        /* \"#utility.yul\":1514:1516   */\n      0x20\n        /* \"#utility.yul\":1503:1512   */\n      dup3\n        /* \"#utility.yul\":1499:1517   */\n      add\n        /* \"#utility.yul\":1491:1517   */\n      swap1\n      pop\n        /* \"#utility.yul\":1527:1598   */\n      tag_187\n        /* \"#utility.yul\":1595:1596   */\n      0x00\n        /* \"#utility.yul\":1584:1593   */\n      dup4\n        /* \"#utility.yul\":1580:1597   */\n      add\n        /* \"#utility.yul\":1571:1577   */\n      dup5\n        /* \"#utility.yul\":1527:1598   */\n      tag_139\n      jump\t// in\n    tag_187:\n        /* \"#utility.yul\":1383:1605   */\n      swap3\n      swap2\n      pop\n      pop\n      jump\t// out\n        /* \"#utility.yul\":1611:1733   */\n    tag_140:\n        /* \"#utility.yul\":1684:1708   */\n      tag_189\n        /* \"#utility.yul\":1702:1707   */\n      dup2\n        /* \"#utility.yul\":1684:1708   */\n      tag_138\n      jump\t// in\n    tag_189:\n        /* \"#utility.yul\":1677:1682   */\n      dup2\n        /* \"#utility.yul\":1674:1709   */\n      eq\n        /* \"#utility.yul\":1664:1727   */\n      tag_190\n      jumpi\n        /* \"#utility.yul\":1723:1724   */\n      0x00\n        /* \"#utility.yul\":1720:1721   */\n      dup1\n        /* \"#utility.yul\":1713:1725   */\n      revert\n        /* \"#utility.yul\":1664:1727   */\n    tag_190:\n        /* \"#utility.yul\":1611:1733   */\n      pop\n      jump\t// out\n        /* \"#utility.yul\":1739:1878   */\n    tag_141:\n        /* \"#utility.yul\":1785:1790   */\n      0x00\n        /* \"#utility.yul\":1823:1829   */\n      dup2\n        /* \"#utility.yul\":1810:1830   */\n      calldataload\n        /* \"#utility.yul\":1801:1830   */\n      swap1\n      pop\n        /* \"#utility.yul\":1839:1872   */\n      tag_192\n        /* \"#utility.yul\":1866:1871   */\n      dup2\n        /* \"#utility.yul\":1839:1872   */\n      tag_140\n      jump\t// in\n    tag_192:\n        /* \"#utility.yul\":1739:1878   */\n      swap3\n      swap2\n      pop\n      pop\n      jump\t// out\n        /* \"#utility.yul\":1884:2213   */\n    tag_23:\n        /* \"#utility.yul\":1943:1949   */\n      0x00\n        /* \"#utility.yul\":1992:1994   */\n      0x20\n        /* \"#utility.yul\":1980:1989   */\n      dup3\n        /* \"#utility.yul\":1971:1978   */\n      dup5\n        /* \"#utility.yul\":1967:1990   */\n      sub\n        /* \"#utility.yul\":1963:1995   */\n      slt\n        /* \"#utility.yul\":1960:2079   */\n      iszero\n      tag_194\n      jumpi\n        /* \"#utility.yul\":1998:2077   */\n      tag_195\n      tag_132\n      jump\t// in\n    tag_195:\n        /* \"#utility.yul\":1960:2079   */\n    tag_194:\n        /* \"#utility.yul\":2118:2119   */\n      0x00\n        /* \"#utility.yul\":2143:2196   */\n      tag_196\n        /* \"#utility.yul\":2188:2195   */\n      dup5\n        /* \"#utility.yul\":2179:2185   */\n      dup3\n        /* \"#utility.yul\":2168:2177   */\n      dup6\n        /* \"#utility.yul\":2164:2186   */\n      add\n        /* \"#utility.yul\":2143:2196   */\n      tag_141\n      jump\t// in\n    tag_196:\n        /* \"#utility.yul\":2133:2196   */\n      swap2\n      pop\n        /* \"#utility.yul\":2089:2206   */\n      pop\n        /* \"#utility.yul\":1884:2213   */\n      swap3\n      swap2\n      pop\n      pop\n      jump\t// out\n        /* \"#utility.yul\":2219:2337   */\n    tag_142:\n        /* \"#utility.yul\":2306:2330   */\n      tag_198\n        /* \"#utility.yul\":2324:2329   */\n      dup2\n        /* \"#utility.yul\":2306:2330   */\n      tag_135\n      jump\t// in\n    tag_198:\n        /* \"#utility.yul\":2301:2304   */\n      dup3\n        /* \"#utility.yul\":2294:2331   */\n      mstore\n        /* \"#utility.yul\":2219:2337   */\n      pop\n      pop\n      jump\t// out\n        /* \"#utility.yul\":2343:2565   */\n    tag_26:\n        /* \"#utility.yul\":2436:2440   */\n      0x00\n        /* \"#utility.yul\":2474:2476   */\n      0x20\n        /* \"#utility.yul\":2463:2472   */\n      dup3\n        /* \"#utility.yul\":2459:2477   */\n      add\n        /* \"#utility.yul\":2451:2477   */\n      swap1\n      pop\n        /* \"#utility.yul\":2487:2558   */\n      tag_200\n        /* \"#utility.yul\":2555:2556   */\n      0x00\n        /* \"#utility.yul\":2544:2553   */\n      dup4\n        /* \"#utility.yul\":2540:2557   */\n      add\n        /* \"#utility.yul\":2531:2537   */\n      dup5\n        /* \"#utility.yul\":2487:2558   */\n      tag_142\n      jump\t// in\n    tag_200:\n        /* \"#utility.yul\":2343:2565   */\n      swap3\n      swap2\n      pop\n      pop\n      jump\t// out\n        /* \"#utility.yul\":2571:2675   */\n    tag_143:\n        /* \"#utility.yul\":2636:2642   */\n      0x00\n        /* \"#utility.yul\":2664:2668   */\n      0x03\n        /* \"#utility.yul\":2654:2668   */\n      swap1\n      pop\n        /* \"#utility.yul\":2571:2675   */\n      swap2\n      swap1\n      pop\n      jump\t// out\n        /* \"#utility.yul\":2681:2824   */\n    tag_144:\n        /* \"#utility.yul\":2778:2789   */\n      0x00\n        /* \"#utility.yul\":2815:2818   */\n      dup2\n        /* \"#utility.yul\":2800:2818   */\n      swap1\n      pop\n        /* \"#utility.yul\":2681:2824   */\n      swap3\n      swap2\n      pop\n      pop\n      jump\t// out\n        /* \"#utility.yul\":2830:2928   */\n    tag_145:\n        /* \"#utility.yul\":2895:2899   */\n      0x00\n        /* \"#utility.yul\":2918:2921   */\n      dup2\n        /* \"#utility.yul\":2910:2921   */\n      swap1\n      pop\n        /* \"#utility.yul\":2830:2928   */\n      swap2\n      swap1\n      pop\n      jump\t// out\n        /* \"#utility.yul\":2934:3042   */\n    tag_146:\n        /* \"#utility.yul\":3011:3035   */\n      tag_205\n        /* \"#utility.yul\":3029:3034   */\n      dup2\n        /* \"#utility.yul\":3011:3035   */\n      tag_135\n      jump\t// in\n    tag_205:\n        /* \"#utility.yul\":3006:3009   */\n      dup3\n        /* \"#utility.yul\":2999:3036   */\n      mstore\n        /* \"#utility.yul\":2934:3042   */\n      pop\n      pop\n      jump\t// out\n        /* \"#utility.yul\":3048:3227   */\n    tag_147:\n        /* \"#utility.yul\":3117:3127   */\n      0x00\n        /* \"#utility.yul\":3138:3184   */\n      tag_207\n        /* \"#utility.yul\":3180:3183   */\n      dup4\n        /* \"#utility.yul\":3172:3178   */\n      dup4\n        /* \"#utility.yul\":3138:3184   */\n      tag_146\n      jump\t// in\n    tag_207:\n        /* \"#utility.yul\":3216:3220   */\n      0x20\n        /* \"#utility.yul\":3211:3214   */\n      dup4\n        /* \"#utility.yul\":3207:3221   */\n      add\n        /* \"#utility.yul\":3193:3221   */\n      swap1\n      pop\n        /* \"#utility.yul\":3048:3227   */\n      swap3\n      swap2\n      pop\n      pop\n      jump\t// out\n        /* \"#utility.yul\":3233:3344   */\n    tag_148:\n        /* \"#utility.yul\":3301:3305   */\n      0x00\n        /* \"#utility.yul\":3333:3337   */\n      0x20\n        /* \"#utility.yul\":3328:3331   */\n      dup3\n        /* \"#utility.yul\":3324:3338   */\n      add\n        /* \"#utility.yul\":3316:3338   */\n      swap1\n      pop\n        /* \"#utility.yul\":3233:3344   */\n      swap2\n      swap1\n      pop\n      jump\t// out\n        /* \"#utility.yul\":3382:4076   */\n    tag_149:\n        /* \"#utility.yul\":3518:3570   */\n      tag_210\n        /* \"#utility.yul\":3564:3569   */\n      dup2\n        /* \"#utility.yul\":3518:3570   */\n      tag_143\n      jump\t// in\n    tag_210:\n        /* \"#utility.yul\":3586:3670   */\n      tag_211\n        /* \"#utility.yul\":3663:3669   */\n      dup2\n        /* \"#utility.yul\":3658:3661   */\n      dup5\n        /* \"#utility.yul\":3586:3670   */\n      tag_144\n      jump\t// in\n    tag_211:\n        /* \"#utility.yul\":3579:3670   */\n      swap3\n      pop\n        /* \"#utility.yul\":3694:3748   */\n      tag_212\n        /* \"#utility.yul\":3742:3747   */\n      dup3\n        /* \"#utility.yul\":3694:3748   */\n      tag_145\n      jump\t// in\n    tag_212:\n        /* \"#utility.yul\":3771:3778   */\n      dup1\n        /* \"#utility.yul\":3802:3803   */\n      0x00\n        /* \"#utility.yul\":3787:4069   */\n    tag_213:\n        /* \"#utility.yul\":3812:3818   */\n      dup4\n        /* \"#utility.yul\":3809:3810   */\n      dup2\n        /* \"#utility.yul\":3806:3819   */\n      lt\n        /* \"#utility.yul\":3787:4069   */\n      iszero\n      tag_215\n      jumpi\n        /* \"#utility.yul\":3888:3894   */\n      dup2\n        /* \"#utility.yul\":3882:3895   */\n      mload\n        /* \"#utility.yul\":3915:3978   */\n      tag_216\n        /* \"#utility.yul\":3974:3977   */\n      dup8\n        /* \"#utility.yul\":3959:3972   */\n      dup3\n        /* \"#utility.yul\":3915:3978   */\n      tag_147\n      jump\t// in\n    tag_216:\n        /* \"#utility.yul\":3908:3978   */\n      swap7\n      pop\n        /* \"#utility.yul\":4001:4059   */\n      tag_217\n        /* \"#utility.yul\":4052:4058   */\n      dup4\n        /* \"#utility.yul\":4001:4059   */\n      tag_148\n      jump\t// in\n    tag_217:\n        /* \"#utility.yul\":3991:4059   */\n      swap3\n      pop\n        /* \"#utility.yul\":3847:4069   */\n      pop\n        /* \"#utility.yul\":3834:3835   */\n      0x01\n        /* \"#utility.yul\":3831:3832   */\n      dup2\n        /* \"#utility.yul\":3827:3836   */\n      add\n        /* \"#utility.yul\":3822:3836   */\n      swap1\n      pop\n        /* \"#utility.yul\":3787:4069   */\n      jump(tag_213)\n    tag_215:\n        /* \"#utility.yul\":3791:3805   */\n      pop\n        /* \"#utility.yul\":3494:4076   */\n      pop\n      pop\n      pop\n        /* \"#utility.yul\":3382:4076   */\n      pop\n      pop\n      jump\t// out\n        /* \"#utility.yul\":4082:4186   */\n    tag_150:\n        /* \"#utility.yul\":4147:4153   */\n      0x00\n        /* \"#utility.yul\":4175:4179   */\n      0x03\n        /* \"#utility.yul\":4165:4179   */\n      swap1\n      pop\n        /* \"#utility.yul\":4082:4186   */\n      swap2\n      swap1\n      pop\n      jump\t// out\n        /* \"#utility.yul\":4192:4335   */\n    tag_151:\n        /* \"#utility.yul\":4289:4300   */\n      0x00\n        /* \"#utility.yul\":4326:4329   */\n      dup2\n        /* \"#utility.yul\":4311:4329   */\n      swap1\n      pop\n        /* \"#utility.yul\":4192:4335   */\n      swap3\n      swap2\n      pop\n      pop\n      jump\t// out\n        /* \"#utility.yul\":4341:4439   */\n    tag_152:\n        /* \"#utility.yul\":4406:4410   */\n      0x00\n        /* \"#utility.yul\":4429:4432   */\n      dup2\n        /* \"#utility.yul\":4421:4432   */\n      swap1\n      pop\n        /* \"#utility.yul\":4341:4439   */\n      swap2\n      swap1\n      pop\n      jump\t// out\n        /* \"#utility.yul\":4445:4553   */\n    tag_153:\n        /* \"#utility.yul\":4522:4546   */\n      tag_222\n        /* \"#utility.yul\":4540:4545   */\n      dup2\n        /* \"#utility.yul\":4522:4546   */\n      tag_138\n      jump\t// in\n    tag_222:\n        /* \"#utility.yul\":4517:4520   */\n      dup3\n        /* \"#utility.yul\":4510:4547   */\n      mstore\n        /* \"#utility.yul\":4445:4553   */\n      pop\n      pop\n      jump\t// out\n        /* \"#utility.yul\":4559:4738   */\n    tag_154:\n        /* \"#utility.yul\":4628:4638   */\n      0x00\n        /* \"#utility.yul\":4649:4695   */\n      tag_224\n        /* \"#utility.yul\":4691:4694   */\n      dup4\n        /* \"#utility.yul\":4683:4689   */\n      dup4\n        /* \"#utility.yul\":4649:4695   */\n      tag_153\n      jump\t// in\n    tag_224:\n        /* \"#utility.yul\":4727:4731   */\n      0x20\n        /* \"#utility.yul\":4722:4725   */\n      dup4\n        /* \"#utility.yul\":4718:4732   */\n      add\n        /* \"#utility.yul\":4704:4732   */\n      swap1\n      pop\n        /* \"#utility.yul\":4559:4738   */\n      swap3\n      swap2\n      pop\n      pop\n      jump\t// out\n        /* \"#utility.yul\":4744:4855   */\n    tag_155:\n        /* \"#utility.yul\":4812:4816   */\n      0x00\n        /* \"#utility.yul\":4844:4848   */\n      0x20\n        /* \"#utility.yul\":4839:4842   */\n      dup3\n        /* \"#utility.yul\":4835:4849   */\n      add\n        /* \"#utility.yul\":4827:4849   */\n      swap1\n      pop\n        /* \"#utility.yul\":4744:4855   */\n      swap2\n      swap1\n      pop\n      jump\t// out\n        /* \"#utility.yul\":4893:5587   */\n    tag_156:\n        /* \"#utility.yul\":5029:5081   */\n      tag_227\n        /* \"#utility.yul\":5075:5080   */\n      dup2\n        /* \"#utility.yul\":5029:5081   */\n      tag_150\n      jump\t// in\n    tag_227:\n        /* \"#utility.yul\":5097:5181   */\n      tag_228\n        /* \"#utility.yul\":5174:5180   */\n      dup2\n        /* \"#utility.yul\":5169:5172   */\n      dup5\n        /* \"#utility.yul\":5097:5181   */\n      tag_151\n      jump\t// in\n    tag_228:\n        /* \"#utility.yul\":5090:5181   */\n      swap3\n      pop\n        /* \"#utility.yul\":5205:5259   */\n      tag_229\n        /* \"#utility.yul\":5253:5258   */\n      dup3\n        /* \"#utility.yul\":5205:5259   */\n      tag_152\n      jump\t// in\n    tag_229:\n        /* \"#utility.yul\":5282:5289   */\n      dup1\n        /* \"#utility.yul\":5313:5314   */\n      0x00\n        /* \"#utility.yul\":5298:5580   */\n    tag_230:\n        /* \"#utility.yul\":5323:5329   */\n      dup4\n        /* \"#utility.yul\":5320:5321   */\n      dup2\n        /* \"#utility.yul\":5317:5330   */\n      lt\n        /* \"#utility.yul\":5298:5580   */\n      iszero\n      tag_232\n      jumpi\n        /* \"#utility.yul\":5399:5405   */\n      dup2\n        /* \"#utility.yul\":5393:5406   */\n      mload\n        /* \"#utility.yul\":5426:5489   */\n      tag_233\n        /* \"#utility.yul\":5485:5488   */\n      dup8\n        /* \"#utility.yul\":5470:5483   */\n      dup3\n        /* \"#utility.yul\":5426:5489   */\n      tag_154\n      jump\t// in\n    tag_233:\n        /* \"#utility.yul\":5419:5489   */\n      swap7\n      pop\n        /* \"#utility.yul\":5512:5570   */\n      tag_234\n        /* \"#utility.yul\":5563:5569   */\n      dup4\n        /* \"#utility.yul\":5512:5570   */\n      tag_155\n      jump\t// in\n    tag_234:\n        /* \"#utility.yul\":5502:5570   */\n      swap3\n      pop\n        /* \"#utility.yul\":5358:5580   */\n      pop\n        /* \"#utility.yul\":5345:5346   */\n      0x01\n        /* \"#utility.yul\":5342:5343   */\n      dup2\n        /* \"#utility.yul\":5338:5347   */\n      add\n        /* \"#utility.yul\":5333:5347   */\n      swap1\n      pop\n        /* \"#utility.yul\":5298:5580   */\n      jump(tag_230)\n    tag_232:\n        /* \"#utility.yul\":5302:5316   */\n      pop\n        /* \"#utility.yul\":5005:5587   */\n      pop\n      pop\n      pop\n        /* \"#utility.yul\":4893:5587   */\n      pop\n      pop\n      jump\t// out\n        /* \"#utility.yul\":5593:6110   */\n    tag_35:\n        /* \"#utility.yul\":5806:5810   */\n      0x00\n        /* \"#utility.yul\":5844:5847   */\n      0xc0\n        /* \"#utility.yul\":5833:5842   */\n      dup3\n        /* \"#utility.yul\":5829:5848   */\n      add\n        /* \"#utility.yul\":5821:5848   */\n      swap1\n      pop\n        /* \"#utility.yul\":5858:5975   */\n      tag_236\n        /* \"#utility.yul\":5972:5973   */\n      0x00\n        /* \"#utility.yul\":5961:5970   */\n      dup4\n        /* \"#utility.yul\":5957:5974   */\n      add\n        /* \"#utility.yul\":5948:5954   */\n      dup6\n        /* \"#utility.yul\":5858:5975   */\n      tag_149\n      jump\t// in\n    tag_236:\n        /* \"#utility.yul\":5985:6103   */\n      tag_237\n        /* \"#utility.yul\":6099:6101   */\n      0x60\n        /* \"#utility.yul\":6088:6097   */\n      dup4\n        /* \"#utility.yul\":6084:6102   */\n      add\n        /* \"#utility.yul\":6075:6081   */\n      dup5\n        /* \"#utility.yul\":5985:6103   */\n      tag_156\n      jump\t// in\n    tag_237:\n        /* \"#utility.yul\":5593:6110   */\n      swap4\n      swap3\n      pop\n      pop\n      pop\n      jump\t// out\n        /* \"#utility.yul\":6116:6590   */\n    tag_40:\n        /* \"#utility.yul\":6184:6190   */\n      0x00\n        /* \"#utility.yul\":6192:6198   */\n      dup1\n        /* \"#utility.yul\":6241:6243   */\n      0x40\n        /* \"#utility.yul\":6229:6238   */\n      dup4\n        /* \"#utility.yul\":6220:6227   */\n      dup6\n        /* \"#utility.yul\":6216:6239   */\n      sub\n        /* \"#utility.yul\":6212:6244   */\n      slt\n        /* \"#utility.yul\":6209:6328   */\n      iszero\n      tag_239\n      jumpi\n        /* \"#utility.yul\":6247:6326   */\n      tag_240\n      tag_132\n      jump\t// in\n    tag_240:\n        /* \"#utility.yul\":6209:6328   */\n    tag_239:\n        /* \"#utility.yul\":6367:6368   */\n      0x00\n        /* \"#utility.yul\":6392:6445   */\n      tag_241\n        /* \"#utility.yul\":6437:6444   */\n      dup6\n        /* \"#utility.yul\":6428:6434   */\n      dup3\n        /* \"#utility.yul\":6417:6426   */\n      dup7\n        /* \"#utility.yul\":6413:6435   */\n      add\n        /* \"#utility.yul\":6392:6445   */\n      tag_137\n      jump\t// in\n    tag_241:\n        /* \"#utility.yul\":6382:6445   */\n      swap3\n      pop\n        /* \"#utility.yul\":6338:6455   */\n      pop\n        /* \"#utility.yul\":6494:6496   */\n      0x20\n        /* \"#utility.yul\":6520:6573   */\n      tag_242\n        /* \"#utility.yul\":6565:6572   */\n      dup6\n        /* \"#utility.yul\":6556:6562   */\n      dup3\n        /* \"#utility.yul\":6545:6554   */\n      dup7\n        /* \"#utility.yul\":6541:6563   */\n      add\n        /* \"#utility.yul\":6520:6573   */\n      tag_141\n      jump\t// in\n    tag_242:\n        /* \"#utility.yul\":6510:6573   */\n      swap2\n      pop\n        /* \"#utility.yul\":6465:6583   */\n      pop\n        /* \"#utility.yul\":6116:6590   */\n      swap3\n      pop\n      swap3\n      swap1\n      pop\n      jump\t// out\n        /* \"#utility.yul\":6596:6765   */\n    tag_157:\n        /* \"#utility.yul\":6680:6691   */\n      0x00\n        /* \"#utility.yul\":6714:6720   */\n      dup3\n        /* \"#utility.yul\":6709:6712   */\n      dup3\n        /* \"#utility.yul\":6702:6721   */\n      mstore\n        /* \"#utility.yul\":6754:6758   */\n      0x20\n        /* \"#utility.yul\":6749:6752   */\n      dup3\n        /* \"#utility.yul\":6745:6759   */\n      add\n        /* \"#utility.yul\":6730:6759   */\n      swap1\n      pop\n        /* \"#utility.yul\":6596:6765   */\n      swap3\n      swap2\n      pop\n      pop\n      jump\t// out\n        /* \"#utility.yul\":6771:6995   */\n    tag_158:\n        /* \"#utility.yul\":6911:6945   */\n      0x4465706f73697420616d6f756e74206d75737420626520677265617465722074\n        /* \"#utility.yul\":6907:6908   */\n      0x00\n        /* \"#utility.yul\":6899:6905   */\n      dup3\n        /* \"#utility.yul\":6895:6909   */\n      add\n        /* \"#utility.yul\":6888:6946   */\n      mstore\n        /* \"#utility.yul\":6980:6987   */\n      0x68616e2030000000000000000000000000000000000000000000000000000000\n        /* \"#utility.yul\":6975:6977   */\n      0x20\n        /* \"#utility.yul\":6967:6973   */\n      dup3\n        /* \"#utility.yul\":6963:6978   */\n      add\n        /* \"#utility.yul\":6956:6988   */\n      mstore\n        /* \"#utility.yul\":6771:6995   */\n      pop\n      jump\t// out\n        /* \"#utility.yul\":7001:7367   */\n    tag_159:\n        /* \"#utility.yul\":7143:7146   */\n      0x00\n        /* \"#utility.yul\":7164:7231   */\n      tag_246\n        /* \"#utility.yul\":7228:7230   */\n      0x25\n        /* \"#utility.yul\":7223:7226   */\n      dup4\n        /* \"#utility.yul\":7164:7231   */\n      tag_157\n      jump\t// in\n    tag_246:\n        /* \"#utility.yul\":7157:7231   */\n      swap2\n      pop\n        /* \"#utility.yul\":7240:7333   */\n      tag_247\n        /* \"#utility.yul\":7329:7332   */\n      dup3\n        /* \"#utility.yul\":7240:7333   */\n      tag_158\n      jump\t// in\n    tag_247:\n        /* \"#utility.yul\":7358:7360   */\n      0x40\n        /* \"#utility.yul\":7353:7356   */\n      dup3\n        /* \"#utility.yul\":7349:7361   */\n      add\n        /* \"#utility.yul\":7342:7361   */\n      swap1\n      pop\n        /* \"#utility.yul\":7001:7367   */\n      swap2\n      swap1\n      pop\n      jump\t// out\n        /* \"#utility.yul\":7373:7792   */\n    tag_45:\n        /* \"#utility.yul\":7539:7543   */\n      0x00\n        /* \"#utility.yul\":7577:7579   */\n      0x20\n        /* \"#utility.yul\":7566:7575   */\n      dup3\n        /* \"#utility.yul\":7562:7580   */\n      add\n        /* \"#utility.yul\":7554:7580   */\n      swap1\n      pop\n        /* \"#utility.yul\":7626:7635   */\n      dup2\n        /* \"#utility.yul\":7620:7624   */\n      dup2\n        /* \"#utility.yul\":7616:7636   */\n      sub\n        /* \"#utility.yul\":7612:7613   */\n      0x00\n        /* \"#utility.yul\":7601:7610   */\n      dup4\n        /* \"#utility.yul\":7597:7614   */\n      add\n        /* \"#utility.yul\":7590:7637   */\n      mstore\n        /* \"#utility.yul\":7654:7785   */\n      tag_249\n        /* \"#utility.yul\":7780:7784   */\n      dup2\n        /* \"#utility.yul\":7654:7785   */\n      tag_159\n      jump\t// in\n    tag_249:\n        /* \"#utility.yul\":7646:7785   */\n      swap1\n      pop\n        /* \"#utility.yul\":7373:7792   */\n      swap2\n      swap1\n      pop\n      jump\t// out\n        /* \"#utility.yul\":7798:7978   */\n    tag_160:\n        /* \"#utility.yul\":7846:7923   */\n      0x4e487b7100000000000000000000000000000000000000000000000000000000\n        /* \"#utility.yul\":7843:7844   */\n      0x00\n        /* \"#utility.yul\":7836:7924   */\n      mstore\n        /* \"#utility.yul\":7943:7947   */\n      0x11\n        /* \"#utility.yul\":7940:7941   */\n      0x04\n        /* \"#utility.yul\":7933:7948   */\n      mstore\n        /* \"#utility.yul\":7967:7971   */\n      0x24\n        /* \"#utility.yul\":7964:7965   */\n      0x00\n        /* \"#utility.yul\":7957:7972   */\n      revert\n        /* \"#utility.yul\":7984:8175   */\n    tag_47:\n        /* \"#utility.yul\":8024:8027   */\n      0x00\n        /* \"#utility.yul\":8043:8063   */\n      tag_252\n        /* \"#utility.yul\":8061:8062   */\n      dup3\n        /* \"#utility.yul\":8043:8063   */\n      tag_138\n      jump\t// in\n    tag_252:\n        /* \"#utility.yul\":8038:8063   */\n      swap2\n      pop\n        /* \"#utility.yul\":8077:8097   */\n      tag_253\n        /* \"#utility.yul\":8095:8096   */\n      dup4\n        /* \"#utility.yul\":8077:8097   */\n      tag_138\n      jump\t// in\n    tag_253:\n        /* \"#utility.yul\":8072:8097   */\n      swap3\n      pop\n        /* \"#utility.yul\":8120:8121   */\n      dup3\n        /* \"#utility.yul\":8117:8118   */\n      dup3\n        /* \"#utility.yul\":8113:8122   */\n      add\n        /* \"#utility.yul\":8106:8122   */\n      swap1\n      pop\n        /* \"#utility.yul\":8141:8144   */\n      dup1\n        /* \"#utility.yul\":8138:8139   */\n      dup3\n        /* \"#utility.yul\":8135:8145   */\n      gt\n        /* \"#utility.yul\":8132:8168   */\n      iszero\n      tag_254\n      jumpi\n        /* \"#utility.yul\":8148:8166   */\n      tag_255\n      tag_160\n      jump\t// in\n    tag_255:\n        /* \"#utility.yul\":8132:8168   */\n    tag_254:\n        /* \"#utility.yul\":7984:8175   */\n      swap3\n      swap2\n      pop\n      pop\n      jump\t// out\n        /* \"#utility.yul\":8181:8361   */\n    tag_64:\n        /* \"#utility.yul\":8229:8306   */\n      0x4e487b7100000000000000000000000000000000000000000000000000000000\n        /* \"#utility.yul\":8226:8227   */\n      0x00\n        /* \"#utility.yul\":8219:8307   */\n      mstore\n        /* \"#utility.yul\":8326:8330   */\n      0x32\n        /* \"#utility.yul\":8323:8324   */\n      0x04\n        /* \"#utility.yul\":8316:8331   */\n      mstore\n        /* \"#utility.yul\":8350:8354   */\n      0x24\n        /* \"#utility.yul\":8347:8348   */\n      0x00\n        /* \"#utility.yul\":8340:8355   */\n      revert\n        /* \"#utility.yul\":8367:8587   */\n    tag_161:\n        /* \"#utility.yul\":8507:8541   */\n      0x4f6e6c79206f776e65722063616e2063616c6c20746869732066756e6374696f\n        /* \"#utility.yul\":8503:8504   */\n      0x00\n        /* \"#utility.yul\":8495:8501   */\n      dup3\n        /* \"#utility.yul\":8491:8505   */\n      add\n        /* \"#utility.yul\":8484:8542   */\n      mstore\n        /* \"#utility.yul\":8576:8579   */\n      0x6e00000000000000000000000000000000000000000000000000000000000000\n        /* \"#utility.yul\":8571:8573   */\n      0x20\n        /* \"#utility.yul\":8563:8569   */\n      dup3\n        /* \"#utility.yul\":8559:8574   */\n      add\n        /* \"#utility.yul\":8552:8580   */\n      mstore\n        /* \"#utility.yul\":8367:8587   */\n      pop\n      jump\t// out\n        /* \"#utility.yul\":8593:8959   */\n    tag_162:\n        /* \"#utility.yul\":8735:8738   */\n      0x00\n        /* \"#utility.yul\":8756:8823   */\n      tag_259\n        /* \"#utility.yul\":8820:8822   */\n      0x21\n        /* \"#utility.yul\":8815:8818   */\n      dup4\n        /* \"#utility.yul\":8756:8823   */\n      tag_157\n      jump\t// in\n    tag_259:\n        /* \"#utility.yul\":8749:8823   */\n      swap2\n      pop\n        /* \"#utility.yul\":8832:8925   */\n      tag_260\n        /* \"#utility.yul\":8921:8924   */\n      dup3\n        /* \"#utility.yul\":8832:8925   */\n      tag_161\n      jump\t// in\n    tag_260:\n        /* \"#utility.yul\":8950:8952   */\n      0x40\n        /* \"#utility.yul\":8945:8948   */\n      dup3\n        /* \"#utility.yul\":8941:8953   */\n      add\n        /* \"#utility.yul\":8934:8953   */\n      swap1\n      pop\n        /* \"#utility.yul\":8593:8959   */\n      swap2\n      swap1\n      pop\n      jump\t// out\n        /* \"#utility.yul\":8965:9384   */\n    tag_73:\n        /* \"#utility.yul\":9131:9135   */\n      0x00\n        /* \"#utility.yul\":9169:9171   */\n      0x20\n        /* \"#utility.yul\":9158:9167   */\n      dup3\n        /* \"#utility.yul\":9154:9172   */\n      add\n        /* \"#utility.yul\":9146:9172   */\n      swap1\n      pop\n        /* \"#utility.yul\":9218:9227   */\n      dup2\n        /* \"#utility.yul\":9212:9216   */\n      dup2\n        /* \"#utility.yul\":9208:9228   */\n      sub\n        /* \"#utility.yul\":9204:9205   */\n      0x00\n        /* \"#utility.yul\":9193:9202   */\n      dup4\n        /* \"#utility.yul\":9189:9206   */\n      add\n        /* \"#utility.yul\":9182:9229   */\n      mstore\n        /* \"#utility.yul\":9246:9377   */\n      tag_262\n        /* \"#utility.yul\":9372:9376   */\n      dup2\n        /* \"#utility.yul\":9246:9377   */\n      tag_162\n      jump\t// in\n    tag_262:\n        /* \"#utility.yul\":9238:9377   */\n      swap1\n      pop\n        /* \"#utility.yul\":8965:9384   */\n      swap2\n      swap1\n      pop\n      jump\t// out\n        /* \"#utility.yul\":9390:9615   */\n    tag_163:\n        /* \"#utility.yul\":9530:9564   */\n      0x576974686472617720616d6f756e74206d757374206265206772656174657220\n        /* \"#utility.yul\":9526:9527   */\n      0x00\n        /* \"#utility.yul\":9518:9524   */\n      dup3\n        /* \"#utility.yul\":9514:9528   */\n      add\n        /* \"#utility.yul\":9507:9565   */\n      mstore\n        /* \"#utility.yul\":9599:9607   */\n      0x7468616e20300000000000000000000000000000000000000000000000000000\n        /* \"#utility.yul\":9594:9596   */\n      0x20\n        /* \"#utility.yul\":9586:9592   */\n      dup3\n        /* \"#utility.yul\":9582:9597   */\n      add\n        /* \"#utility.yul\":9575:9608   */\n      mstore\n        /* \"#utility.yul\":9390:9615   */\n      pop\n      jump\t// out\n        /* \"#utility.yul\":9621:9987   */\n    tag_164:\n        /* \"#utility.yul\":9763:9766   */\n      0x00\n        /* \"#utility.yul\":9784:9851   */\n      tag_265\n        /* \"#utility.yul\":9848:9850   */\n      0x26\n        /* \"#utility.yul\":9843:9846   */\n      dup4\n        /* \"#utility.yul\":9784:9851   */\n      tag_157\n      jump\t// in\n    tag_265:\n        /* \"#utility.yul\":9777:9851   */\n      swap2\n      pop\n        /* \"#utility.yul\":9860:9953   */\n      tag_266\n        /* \"#utility.yul\":9949:9952   */\n      dup3\n        /* \"#utility.yul\":9860:9953   */\n      tag_163\n      jump\t// in\n    tag_266:\n        /* \"#utility.yul\":9978:9980   */\n      0x40\n        /* \"#utility.yul\":9973:9976   */\n      dup3\n        /* \"#utility.yul\":9969:9981   */\n      add\n        /* \"#utility.yul\":9962:9981   */\n      swap1\n      pop\n        /* \"#utility.yul\":9621:9987   */\n      swap2\n      swap1\n      pop\n      jump\t// out\n        /* \"#utility.yul\":9993:10412   */\n    tag_77:\n        /* \"#utility.yul\":10159:10163   */\n      0x00\n        /* \"#utility.yul\":10197:10199   */\n      0x20\n        /* \"#utility.yul\":10186:10195   */\n      dup3\n        /* \"#utility.yul\":10182:10200   */\n      add\n        /* \"#utility.yul\":10174:10200   */\n      swap1\n      pop\n        /* \"#utility.yul\":10246:10255   */\n      dup2\n        /* \"#utility.yul\":10240:10244   */\n      dup2\n        /* \"#utility.yul\":10236:10256   */\n      sub\n        /* \"#utility.yul\":10232:10233   */\n      0x00\n        /* \"#utility.yul\":10221:10230   */\n      dup4\n        /* \"#utility.yul\":10217:10234   */\n      add\n        /* \"#utility.yul\":10210:10257   */\n      mstore\n        /* \"#utility.yul\":10274:10405   */\n      tag_268\n        /* \"#utility.yul\":10400:10404   */\n      dup2\n        /* \"#utility.yul\":10274:10405   */\n      tag_164\n      jump\t// in\n    tag_268:\n        /* \"#utility.yul\":10266:10405   */\n      swap1\n      pop\n        /* \"#utility.yul\":9993:10412   */\n      swap2\n      swap1\n      pop\n      jump\t// out\n        /* \"#utility.yul\":10418:10597   */\n    tag_165:\n        /* \"#utility.yul\":10558:10589   */\n      0x496e73756666696369656e7420636f6e74726163742062616c616e6365000000\n        /* \"#utility.yul\":10554:10555   */\n      0x00\n        /* \"#utility.yul\":10546:10552   */\n      dup3\n        /* \"#utility.yul\":10542:10556   */\n      add\n        /* \"#utility.yul\":10535:10590   */\n      mstore\n        /* \"#utility.yul\":10418:10597   */\n      pop\n      jump\t// out\n        /* \"#utility.yul\":10603:10969   */\n    tag_166:\n        /* \"#utility.yul\":10745:10748   */\n      0x00\n        /* \"#utility.yul\":10766:10833   */\n      tag_271\n        /* \"#utility.yul\":10830:10832   */\n      0x1d\n        /* \"#utility.yul\":10825:10828   */\n      dup4\n        /* \"#utility.yul\":10766:10833   */\n      tag_157\n      jump\t// in\n    tag_271:\n        /* \"#utility.yul\":10759:10833   */\n      swap2\n      pop\n        /* \"#utility.yul\":10842:10935   */\n      tag_272\n        /* \"#utility.yul\":10931:10934   */\n      dup3\n        /* \"#utility.yul\":10842:10935   */\n      tag_165\n      jump\t// in\n    tag_272:\n        /* \"#utility.yul\":10960:10962   */\n      0x20\n        /* \"#utility.yul\":10955:10958   */\n      dup3\n        /* \"#utility.yul\":10951:10963   */\n      add\n        /* \"#utility.yul\":10944:10963   */\n      swap1\n      pop\n        /* \"#utility.yul\":10603:10969   */\n      swap2\n      swap1\n      pop\n      jump\t// out\n        /* \"#utility.yul\":10975:11394   */\n    tag_80:\n        /* \"#utility.yul\":11141:11145   */\n      0x00\n        /* \"#utility.yul\":11179:11181   */\n      0x20\n        /* \"#utility.yul\":11168:11177   */\n      dup3\n        /* \"#utility.yul\":11164:11182   */\n      add\n        /* \"#utility.yul\":11156:11182   */\n      swap1\n      pop\n        /* \"#utility.yul\":11228:11237   */\n      dup2\n        /* \"#utility.yul\":11222:11226   */\n      dup2\n        /* \"#utility.yul\":11218:11238   */\n      sub\n        /* \"#utility.yul\":11214:11215   */\n      0x00\n        /* \"#utility.yul\":11203:11212   */\n      dup4\n        /* \"#utility.yul\":11199:11216   */\n      add\n        /* \"#utility.yul\":11192:11239   */\n      mstore\n        /* \"#utility.yul\":11256:11387   */\n      tag_274\n        /* \"#utility.yul\":11382:11386   */\n      dup2\n        /* \"#utility.yul\":11256:11387   */\n      tag_166\n      jump\t// in\n    tag_274:\n        /* \"#utility.yul\":11248:11387   */\n      swap1\n      pop\n        /* \"#utility.yul\":10975:11394   */\n      swap2\n      swap1\n      pop\n      jump\t// out\n        /* \"#utility.yul\":11400:11594   */\n    tag_107:\n        /* \"#utility.yul\":11440:11444   */\n      0x00\n        /* \"#utility.yul\":11460:11480   */\n      tag_276\n        /* \"#utility.yul\":11478:11479   */\n      dup3\n        /* \"#utility.yul\":11460:11480   */\n      tag_138\n      jump\t// in\n    tag_276:\n        /* \"#utility.yul\":11455:11480   */\n      swap2\n      pop\n        /* \"#utility.yul\":11494:11514   */\n      tag_277\n        /* \"#utility.yul\":11512:11513   */\n      dup4\n        /* \"#utility.yul\":11494:11514   */\n      tag_138\n      jump\t// in\n    tag_277:\n        /* \"#utility.yul\":11489:11514   */\n      swap3\n      pop\n        /* \"#utility.yul\":11538:11539   */\n      dup3\n        /* \"#utility.yul\":11535:11536   */\n      dup3\n        /* \"#utility.yul\":11531:11540   */\n      sub\n        /* \"#utility.yul\":11523:11540   */\n      swap1\n      pop\n        /* \"#utility.yul\":11562:11563   */\n      dup2\n        /* \"#utility.yul\":11556:11560   */\n      dup2\n        /* \"#utility.yul\":11553:11564   */\n      gt\n        /* \"#utility.yul\":11550:11587   */\n      iszero\n      tag_278\n      jumpi\n        /* \"#utility.yul\":11567:11585   */\n      tag_279\n      tag_160\n      jump\t// in\n    tag_279:\n        /* \"#utility.yul\":11550:11587   */\n    tag_278:\n        /* \"#utility.yul\":11400:11594   */\n      swap3\n      swap2\n      pop\n      pop\n      jump\t// out\n\n    auxdata: 0xa2646970667358221220a4f65704bf386a8fb6687260370e672766fb028c9fdafc93e929bc810009889964736f6c634300081a0033\n}\n",
				"bytecode": {
					"linkReferences": {},
					"object": "6080604052348015600e575f80fd5b50335f806101000a81548173ffffffffffffffffffffffffffffffffffffffff021916908373ffffffffffffffffffffffffffffffffffffffff160217905550610fe48061005b5f395ff3fe608060405260043610610058575f3560e01c806327e235e31461006b578063836c4bd9146100a75780638da5cb5b146100e3578063b986363e1461010d578063d0e30db014610138578063f3fef3a31461014257610067565b366100675761006561016a565b005b5f80fd5b348015610076575f80fd5b50610091600480360381019061008c9190610a44565b610258565b60405161009e9190610a87565b60405180910390f35b3480156100b2575f80fd5b506100cd60048036038101906100c89190610aca565b61026d565b6040516100da9190610b04565b60405180910390f35b3480156100ee575f80fd5b506100f76102a1565b6040516101049190610b04565b60405180910390f35b348015610118575f80fd5b506101216102c4565b60405161012f929190610c67565b60405180910390f35b61014061016a565b005b34801561014d575f80fd5b5061016860048036038101906101639190610c8e565b610403565b005b5f34116101ac576040517f08c379a00000000000000000000000000000000000000000000000000000000081526004016101a390610d4c565b60405180910390fd5b3460015f3373ffffffffffffffffffffffffffffffffffffffff1673ffffffffffffffffffffffffffffffffffffffff1681526020019081526020015f205f8282546101f89190610d97565b925050819055503373ffffffffffffffffffffffffffffffffffffffff167fe1fffcc4923d04b559f4d29a8bfc6cda04eb5b0d3c460751c2402c5c5cc9109c346040516102459190610a87565b60405180910390a2610256336105ab565b565b6001602052805f5260405f205f915090505481565b6002816003811061027c575f80fd5b015f915054906101000a900473ffffffffffffffffffffffffffffffffffffffff1681565b5f8054906101000a900473ffffffffffffffffffffffffffffffffffffffff1681565b6102cc6109a2565b6102d46109c4565b6102dc6109c4565b5f5b60038110156103825760015f600283600381106102fe576102fd610dca565b5b015f9054906101000a900473ffffffffffffffffffffffffffffffffffffffff1673ffffffffffffffffffffffffffffffffffffffff1673ffffffffffffffffffffffffffffffffffffffff1681526020019081526020015f205482826003811061036c5761036b610dca565b5b60200201818152505080806001019150506102de565b50600281816003806020026040519081016040528092919082600380156103f3576020028201915b815f9054906101000a900473ffffffffffffffffffffffffffffffffffffffff1673ffffffffffffffffffffffffffffffffffffffff16815260200190600101908083116103aa575b5050505050915092509250509091565b5f8054906101000a900473ffffffffffffffffffffffffffffffffffffffff1673ffffffffffffffffffffffffffffffffffffffff163373ffffffffffffffffffffffffffffffffffffffff1614610490576040517f08c379a000000000000000000000000000000000000000000000000000000000815260040161048790610e67565b60405180910390fd5b5f81116104d2576040517f08c379a00000000000000000000000000000000000000000000000000000000081526004016104c990610ef5565b60405180910390fd5b47811115610515576040517f08c379a000000000000000000000000000000000000000000000000000000000815260040161050c90610f5d565b60405180910390fd5b8173ffffffffffffffffffffffffffffffffffffffff166108fc8290811502906040515f60405180830381858888f19350505050158015610558573d5f803e3d5ffd5b508173ffffffffffffffffffffffffffffffffffffffff167f884edad9ce6fa2440d8a54cc123490eb96d2768479d49ff9c7366125a94243648260405161059f9190610a87565b60405180910390a25050565b5f60015f8373ffffffffffffffffffffffffffffffffffffffff1673ffffffffffffffffffffffffffffffffffffffff1681526020019081526020015f205490505f5b600381101561067a576002816003811061060b5761060a610dca565b5b015f9054906101000a900473ffffffffffffffffffffffffffffffffffffffff1673ffffffffffffffffffffffffffffffffffffffff168373ffffffffffffffffffffffffffffffffffffffff160361066d57610666610755565b5050610752565b80806001019150506105ee565b5060015f6002806003811061069257610691610dca565b5b015f9054906101000a900473ffffffffffffffffffffffffffffffffffffffff1673ffffffffffffffffffffffffffffffffffffffff1673ffffffffffffffffffffffffffffffffffffffff1681526020019081526020015f205481111561075057816002806003811061070957610708610dca565b5b015f6101000a81548173ffffffffffffffffffffffffffffffffffffffff021916908373ffffffffffffffffffffffffffffffffffffffff16021790555061074f610755565b5b505b50565b5f5b600160036107659190610f7b565b81101561099f575f60018261077a9190610d97565b90505b60038110156109915760015f6002836003811061079d5761079c610dca565b5b015f9054906101000a900473ffffffffffffffffffffffffffffffffffffffff1673ffffffffffffffffffffffffffffffffffffffff1673ffffffffffffffffffffffffffffffffffffffff1681526020019081526020015f205460015f6002856003811061080f5761080e610dca565b5b015f9054906101000a900473ffffffffffffffffffffffffffffffffffffffff1673ffffffffffffffffffffffffffffffffffffffff1673ffffffffffffffffffffffffffffffffffffffff1681526020019081526020015f20541015610984575f6002836003811061088557610884610dca565b5b015f9054906101000a900473ffffffffffffffffffffffffffffffffffffffff169050600282600381106108bc576108bb610dca565b5b015f9054906101000a900473ffffffffffffffffffffffffffffffffffffffff16600284600381106108f1576108f0610dca565b5b015f6101000a81548173ffffffffffffffffffffffffffffffffffffffff021916908373ffffffffffffffffffffffffffffffffffffffff160217905550806002836003811061094457610943610dca565b5b015f6101000a81548173ffffffffffffffffffffffffffffffffffffffff021916908373ffffffffffffffffffffffffffffffffffffffff160217905550505b808060010191505061077d565b508080600101915050610757565b50565b6040518060600160405280600390602082028036833780820191505090505090565b6040518060600160405280600390602082028036833780820191505090505090565b5f80fd5b5f73ffffffffffffffffffffffffffffffffffffffff82169050919050565b5f610a13826109ea565b9050919050565b610a2381610a09565b8114610a2d575f80fd5b50565b5f81359050610a3e81610a1a565b92915050565b5f60208284031215610a5957610a586109e6565b5b5f610a6684828501610a30565b91505092915050565b5f819050919050565b610a8181610a6f565b82525050565b5f602082019050610a9a5f830184610a78565b92915050565b610aa981610a6f565b8114610ab3575f80fd5b50565b5f81359050610ac481610aa0565b92915050565b5f60208284031215610adf57610ade6109e6565b5b5f610aec84828501610ab6565b91505092915050565b610afe81610a09565b82525050565b5f602082019050610b175f830184610af5565b92915050565b5f60039050919050565b5f81905092915050565b5f819050919050565b610b4381610a09565b82525050565b5f610b548383610b3a565b60208301905092915050565b5f602082019050919050565b610b7581610b1d565b610b7f8184610b27565b9250610b8a82610b31565b805f5b83811015610bba578151610ba18782610b49565b9650610bac83610b60565b925050600181019050610b8d565b505050505050565b5f60039050919050565b5f81905092915050565b5f819050919050565b610be881610a6f565b82525050565b5f610bf98383610bdf565b60208301905092915050565b5f602082019050919050565b610c1a81610bc2565b610c248184610bcc565b9250610c2f82610bd6565b805f5b83811015610c5f578151610c468782610bee565b9650610c5183610c05565b925050600181019050610c32565b505050505050565b5f60c082019050610c7a5f830185610b6c565b610c876060830184610c11565b9392505050565b5f8060408385031215610ca457610ca36109e6565b5b5f610cb185828601610a30565b9250506020610cc285828601610ab6565b9150509250929050565b5f82825260208201905092915050565b7f4465706f73697420616d6f756e74206d757374206265206772656174657220745f8201527f68616e2030000000000000000000000000000000000000000000000000000000602082015250565b5f610d36602583610ccc565b9150610d4182610cdc565b604082019050919050565b5f6020820190508181035f830152610d6381610d2a565b9050919050565b7f4e487b71000000000000000000000000000000000000000000000000000000005f52601160045260245ffd5b5f610da182610a6f565b9150610dac83610a6f565b9250828201905080821115610dc457610dc3610d6a565b5b92915050565b7f4e487b71000000000000000000000000000000000000000000000000000000005f52603260045260245ffd5b7f4f6e6c79206f776e65722063616e2063616c6c20746869732066756e6374696f5f8201527f6e00000000000000000000000000000000000000000000000000000000000000602082015250565b5f610e51602183610ccc565b9150610e5c82610df7565b604082019050919050565b5f6020820190508181035f830152610e7e81610e45565b9050919050565b7f576974686472617720616d6f756e74206d7573742062652067726561746572205f8201527f7468616e20300000000000000000000000000000000000000000000000000000602082015250565b5f610edf602683610ccc565b9150610eea82610e85565b604082019050919050565b5f6020820190508181035f830152610f0c81610ed3565b9050919050565b7f496e73756666696369656e7420636f6e74726163742062616c616e63650000005f82015250565b5f610f47601d83610ccc565b9150610f5282610f13565b602082019050919050565b5f6020820190508181035f830152610f7481610f3b565b9050919050565b5f610f8582610a6f565b9150610f9083610a6f565b9250828203905081811115610fa857610fa7610d6a565b5b9291505056fea2646970667358221220a4f65704bf386a8fb6687260370e672766fb028c9fdafc93e929bc810009889964736f6c634300081a0033",
					"opcodes": "PUSH1 0x80 PUSH1 0x40 MSTORE CALLVALUE DUP1 ISZERO PUSH1 0xE JUMPI PUSH0 DUP1 REVERT JUMPDEST POP CALLER PUSH0 DUP1 PUSH2 0x100 EXP DUP2 SLOAD DUP2 PUSH20 0xFFFFFFFFFFFFFFFFFFFFFFFFFFFFFFFFFFFFFFFF MUL NOT AND SWAP1 DUP4 PUSH20 0xFFFFFFFFFFFFFFFFFFFFFFFFFFFFFFFFFFFFFFFF AND MUL OR SWAP1 SSTORE POP PUSH2 0xFE4 DUP1 PUSH2 0x5B PUSH0 CODECOPY PUSH0 RETURN INVALID PUSH1 0x80 PUSH1 0x40 MSTORE PUSH1 0x4 CALLDATASIZE LT PUSH2 0x58 JUMPI PUSH0 CALLDATALOAD PUSH1 0xE0 SHR DUP1 PUSH4 0x27E235E3 EQ PUSH2 0x6B JUMPI DUP1 PUSH4 0x836C4BD9 EQ PUSH2 0xA7 JUMPI DUP1 PUSH4 0x8DA5CB5B EQ PUSH2 0xE3 JUMPI DUP1 PUSH4 0xB986363E EQ PUSH2 0x10D JUMPI DUP1 PUSH4 0xD0E30DB0 EQ PUSH2 0x138 JUMPI DUP1 PUSH4 0xF3FEF3A3 EQ PUSH2 0x142 JUMPI PUSH2 0x67 JUMP JUMPDEST CALLDATASIZE PUSH2 0x67 JUMPI PUSH2 0x65 PUSH2 0x16A JUMP JUMPDEST STOP JUMPDEST PUSH0 DUP1 REVERT JUMPDEST CALLVALUE DUP1 ISZERO PUSH2 0x76 JUMPI PUSH0 DUP1 REVERT JUMPDEST POP PUSH2 0x91 PUSH1 0x4 DUP1 CALLDATASIZE SUB DUP2 ADD SWAP1 PUSH2 0x8C SWAP2 SWAP1 PUSH2 0xA44 JUMP JUMPDEST PUSH2 0x258 JUMP JUMPDEST PUSH1 0x40 MLOAD PUSH2 0x9E SWAP2 SWAP1 PUSH2 0xA87 JUMP JUMPDEST PUSH1 0x40 MLOAD DUP1 SWAP2 SUB SWAP1 RETURN JUMPDEST CALLVALUE DUP1 ISZERO PUSH2 0xB2 JUMPI PUSH0 DUP1 REVERT JUMPDEST POP PUSH2 0xCD PUSH1 0x4 DUP1 CALLDATASIZE SUB DUP2 ADD SWAP1 PUSH2 0xC8 SWAP2 SWAP1 PUSH2 0xACA JUMP JUMPDEST PUSH2 0x26D JUMP JUMPDEST PUSH1 0x40 MLOAD PUSH2 0xDA SWAP2 SWAP1 PUSH2 0xB04 JUMP JUMPDEST PUSH1 0x40 MLOAD DUP1 SWAP2 SUB SWAP1 RETURN JUMPDEST CALLVALUE DUP1 ISZERO PUSH2 0xEE JUMPI PUSH0 DUP1 REVERT JUMPDEST POP PUSH2 0xF7 PUSH2 0x2A1 JUMP JUMPDEST PUSH1 0x40 MLOAD PUSH2 0x104 SWAP2 SWAP1 PUSH2 0xB04 JUMP JUMPDEST PUSH1 0x40 MLOAD DUP1 SWAP2 SUB SWAP1 RETURN JUMPDEST CALLVALUE DUP1 ISZERO PUSH2 0x118 JUMPI PUSH0 DUP1 REVERT JUMPDEST POP PUSH2 0x121 PUSH2 0x2C4 JUMP JUMPDEST PUSH1 0x40 MLOAD PUSH2 0x12F SWAP3 SWAP2 SWAP1 PUSH2 0xC67 JUMP JUMPDEST PUSH1 0x40 MLOAD DUP1 SWAP2 SUB SWAP1 RETURN JUMPDEST PUSH2 0x140 PUSH2 0x16A JUMP JUMPDEST STOP JUMPDEST CALLVALUE DUP1 ISZERO PUSH2 0x14D JUMPI PUSH0 DUP1 REVERT JUMPDEST POP PUSH2 0x168 PUSH1 0x4 DUP1 CALLDATASIZE SUB DUP2 ADD SWAP1 PUSH2 0x163 SWAP2 SWAP1 PUSH2 0xC8E JUMP JUMPDEST PUSH2 0x403 JUMP JUMPDEST STOP JUMPDEST PUSH0 CALLVALUE GT PUSH2 0x1AC JUMPI PUSH1 0x40 MLOAD PUSH32 0x8C379A000000000000000000000000000000000000000000000000000000000 DUP2 MSTORE PUSH1 0x4 ADD PUSH2 0x1A3 SWAP1 PUSH2 0xD4C JUMP JUMPDEST PUSH1 0x40 MLOAD DUP1 SWAP2 SUB SWAP1 REVERT JUMPDEST CALLVALUE PUSH1 0x1 PUSH0 CALLER PUSH20 0xFFFFFFFFFFFFFFFFFFFFFFFFFFFFFFFFFFFFFFFF AND PUSH20 0xFFFFFFFFFFFFFFFFFFFFFFFFFFFFFFFFFFFFFFFF AND DUP2 MSTORE PUSH1 0x20 ADD SWAP1 DUP2 MSTORE PUSH1 0x20 ADD PUSH0 KECCAK256 PUSH0 DUP3 DUP3 SLOAD PUSH2 0x1F8 SWAP2 SWAP1 PUSH2 0xD97 JUMP JUMPDEST SWAP3 POP POP DUP2 SWAP1 SSTORE POP CALLER PUSH20 0xFFFFFFFFFFFFFFFFFFFFFFFFFFFFFFFFFFFFFFFF AND PUSH32 0xE1FFFCC4923D04B559F4D29A8BFC6CDA04EB5B0D3C460751C2402C5C5CC9109C CALLVALUE PUSH1 0x40 MLOAD PUSH2 0x245 SWAP2 SWAP1 PUSH2 0xA87 JUMP JUMPDEST PUSH1 0x40 MLOAD DUP1 SWAP2 SUB SWAP1 LOG2 PUSH2 0x256 CALLER PUSH2 0x5AB JUMP JUMPDEST JUMP JUMPDEST PUSH1 0x1 PUSH1 0x20 MSTORE DUP1 PUSH0 MSTORE PUSH1 0x40 PUSH0 KECCAK256 PUSH0 SWAP2 POP SWAP1 POP SLOAD DUP2 JUMP JUMPDEST PUSH1 0x2 DUP2 PUSH1 0x3 DUP2 LT PUSH2 0x27C JUMPI PUSH0 DUP1 REVERT JUMPDEST ADD PUSH0 SWAP2 POP SLOAD SWAP1 PUSH2 0x100 EXP SWAP1 DIV PUSH20 0xFFFFFFFFFFFFFFFFFFFFFFFFFFFFFFFFFFFFFFFF AND DUP2 JUMP JUMPDEST PUSH0 DUP1 SLOAD SWAP1 PUSH2 0x100 EXP SWAP1 DIV PUSH20 0xFFFFFFFFFFFFFFFFFFFFFFFFFFFFFFFFFFFFFFFF AND DUP2 JUMP JUMPDEST PUSH2 0x2CC PUSH2 0x9A2 JUMP JUMPDEST PUSH2 0x2D4 PUSH2 0x9C4 JUMP JUMPDEST PUSH2 0x2DC PUSH2 0x9C4 JUMP JUMPDEST PUSH0 JUMPDEST PUSH1 0x3 DUP2 LT ISZERO PUSH2 0x382 JUMPI PUSH1 0x1 PUSH0 PUSH1 0x2 DUP4 PUSH1 0x3 DUP2 LT PUSH2 0x2FE JUMPI PUSH2 0x2FD PUSH2 0xDCA JUMP JUMPDEST JUMPDEST ADD PUSH0 SWAP1 SLOAD SWAP1 PUSH2 0x100 EXP SWAP1 DIV PUSH20 0xFFFFFFFFFFFFFFFFFFFFFFFFFFFFFFFFFFFFFFFF AND PUSH20 0xFFFFFFFFFFFFFFFFFFFFFFFFFFFFFFFFFFFFFFFF AND PUSH20 0xFFFFFFFFFFFFFFFFFFFFFFFFFFFFFFFFFFFFFFFF AND DUP2 MSTORE PUSH1 0x20 ADD SWAP1 DUP2 MSTORE PUSH1 0x20 ADD PUSH0 KECCAK256 SLOAD DUP3 DUP3 PUSH1 0x3 DUP2 LT PUSH2 0x36C JUMPI PUSH2 0x36B PUSH2 0xDCA JUMP JUMPDEST JUMPDEST PUSH1 0x20 MUL ADD DUP2 DUP2 MSTORE POP POP DUP1 DUP1 PUSH1 0x1 ADD SWAP2 POP POP PUSH2 0x2DE JUMP JUMPDEST POP PUSH1 0x2 DUP2 DUP2 PUSH1 0x3 DUP1 PUSH1 0x20 MUL PUSH1 0x40 MLOAD SWAP1 DUP2 ADD PUSH1 0x40 MSTORE DUP1 SWAP3 SWAP2 SWAP1 DUP3 PUSH1 0x3 DUP1 ISZERO PUSH2 0x3F3 JUMPI PUSH1 0x20 MUL DUP3 ADD SWAP2 JUMPDEST DUP2 PUSH0 SWAP1 SLOAD SWAP1 PUSH2 0x100 EXP SWAP1 DIV PUSH20 0xFFFFFFFFFFFFFFFFFFFFFFFFFFFFFFFFFFFFFFFF AND PUSH20 0xFFFFFFFFFFFFFFFFFFFFFFFFFFFFFFFFFFFFFFFF AND DUP2 MSTORE PUSH1 0x20 ADD SWAP1 PUSH1 0x1 ADD SWAP1 DUP1 DUP4 GT PUSH2 0x3AA JUMPI JUMPDEST POP POP POP POP POP SWAP2 POP SWAP3 POP SWAP3 POP POP SWAP1 SWAP2 JUMP JUMPDEST PUSH0 DUP1 SLOAD SWAP1 PUSH2 0x100 EXP SWAP1 DIV PUSH20 0xFFFFFFFFFFFFFFFFFFFFFFFFFFFFFFFFFFFFFFFF AND PUSH20 0xFFFFFFFFFFFFFFFFFFFFFFFFFFFFFFFFFFFFFFFF AND CALLER PUSH20 0xFFFFFFFFFFFFFFFFFFFFFFFFFFFFFFFFFFFFFFFF AND EQ PUSH2 0x490 JUMPI PUSH1 0x40 MLOAD PUSH32 0x8C379A000000000000000000000000000000000000000000000000000000000 DUP2 MSTORE PUSH1 0x4 ADD PUSH2 0x487 SWAP1 PUSH2 0xE67 JUMP JUMPDEST PUSH1 0x40 MLOAD DUP1 SWAP2 SUB SWAP1 REVERT JUMPDEST PUSH0 DUP2 GT PUSH2 0x4D2 JUMPI PUSH1 0x40 MLOAD PUSH32 0x8C379A000000000000000000000000000000000000000000000000000000000 DUP2 MSTORE PUSH1 0x4 ADD PUSH2 0x4C9 SWAP1 PUSH2 0xEF5 JUMP JUMPDEST PUSH1 0x40 MLOAD DUP1 SWAP2 SUB SWAP1 REVERT JUMPDEST SELFBALANCE DUP2 GT ISZERO PUSH2 0x515 JUMPI PUSH1 0x40 MLOAD PUSH32 0x8C379A000000000000000000000000000000000000000000000000000000000 DUP2 MSTORE PUSH1 0x4 ADD PUSH2 0x50C SWAP1 PUSH2 0xF5D JUMP JUMPDEST PUSH1 0x40 MLOAD DUP1 SWAP2 SUB SWAP1 REVERT JUMPDEST DUP2 PUSH20 0xFFFFFFFFFFFFFFFFFFFFFFFFFFFFFFFFFFFFFFFF AND PUSH2 0x8FC DUP3 SWAP1 DUP2 ISZERO MUL SWAP1 PUSH1 0x40 MLOAD PUSH0 PUSH1 0x40 MLOAD DUP1 DUP4 SUB DUP2 DUP6 DUP9 DUP9 CALL SWAP4 POP POP POP POP ISZERO DUP1 ISZERO PUSH2 0x558 JUMPI RETURNDATASIZE PUSH0 DUP1 RETURNDATACOPY RETURNDATASIZE PUSH0 REVERT JUMPDEST POP DUP2 PUSH20 0xFFFFFFFFFFFFFFFFFFFFFFFFFFFFFFFFFFFFFFFF AND PUSH32 0x884EDAD9CE6FA2440D8A54CC123490EB96D2768479D49FF9C7366125A9424364 DUP3 PUSH1 0x40 MLOAD PUSH2 0x59F SWAP2 SWAP1 PUSH2 0xA87 JUMP JUMPDEST PUSH1 0x40 MLOAD DUP1 SWAP2 SUB SWAP1 LOG2 POP POP JUMP JUMPDEST PUSH0 PUSH1 0x1 PUSH0 DUP4 PUSH20 0xFFFFFFFFFFFFFFFFFFFFFFFFFFFFFFFFFFFFFFFF AND PUSH20 0xFFFFFFFFFFFFFFFFFFFFFFFFFFFFFFFFFFFFFFFF AND DUP2 MSTORE PUSH1 0x20 ADD SWAP1 DUP2 MSTORE PUSH1 0x20 ADD PUSH0 KECCAK256 SLOAD SWAP1 POP PUSH0 JUMPDEST PUSH1 0x3 DUP2 LT ISZERO PUSH2 0x67A JUMPI PUSH1 0x2 DUP2 PUSH1 0x3 DUP2 LT PUSH2 0x60B JUMPI PUSH2 0x60A PUSH2 0xDCA JUMP JUMPDEST JUMPDEST ADD PUSH0 SWAP1 SLOAD SWAP1 PUSH2 0x100 EXP SWAP1 DIV PUSH20 0xFFFFFFFFFFFFFFFFFFFFFFFFFFFFFFFFFFFFFFFF AND PUSH20 0xFFFFFFFFFFFFFFFFFFFFFFFFFFFFFFFFFFFFFFFF AND DUP4 PUSH20 0xFFFFFFFFFFFFFFFFFFFFFFFFFFFFFFFFFFFFFFFF AND SUB PUSH2 0x66D JUMPI PUSH2 0x666 PUSH2 0x755 JUMP JUMPDEST POP POP PUSH2 0x752 JUMP JUMPDEST DUP1 DUP1 PUSH1 0x1 ADD SWAP2 POP POP PUSH2 0x5EE JUMP JUMPDEST POP PUSH1 0x1 PUSH0 PUSH1 0x2 DUP1 PUSH1 0x3 DUP2 LT PUSH2 0x692 JUMPI PUSH2 0x691 PUSH2 0xDCA JUMP JUMPDEST JUMPDEST ADD PUSH0 SWAP1 SLOAD SWAP1 PUSH2 0x100 EXP SWAP1 DIV PUSH20 0xFFFFFFFFFFFFFFFFFFFFFFFFFFFFFFFFFFFFFFFF AND PUSH20 0xFFFFFFFFFFFFFFFFFFFFFFFFFFFFFFFFFFFFFFFF AND PUSH20 0xFFFFFFFFFFFFFFFFFFFFFFFFFFFFFFFFFFFFFFFF AND DUP2 MSTORE PUSH1 0x20 ADD SWAP1 DUP2 MSTORE PUSH1 0x20 ADD PUSH0 KECCAK256 SLOAD DUP2 GT ISZERO PUSH2 0x750 JUMPI DUP2 PUSH1 0x2 DUP1 PUSH1 0x3 DUP2 LT PUSH2 0x709 JUMPI PUSH2 0x708 PUSH2 0xDCA JUMP JUMPDEST JUMPDEST ADD PUSH0 PUSH2 0x100 EXP DUP2 SLOAD DUP2 PUSH20 0xFFFFFFFFFFFFFFFFFFFFFFFFFFFFFFFFFFFFFFFF MUL NOT AND SWAP1 DUP4 PUSH20 0xFFFFFFFFFFFFFFFFFFFFFFFFFFFFFFFFFFFFFFFF AND MUL OR SWAP1 SSTORE POP PUSH2 0x74F PUSH2 0x755 JUMP JUMPDEST JUMPDEST POP JUMPDEST POP JUMP JUMPDEST PUSH0 JUMPDEST PUSH1 0x1 PUSH1 0x3 PUSH2 0x765 SWAP2 SWAP1 PUSH2 0xF7B JUMP JUMPDEST DUP2 LT ISZERO PUSH2 0x99F JUMPI PUSH0 PUSH1 0x1 DUP3 PUSH2 0x77A SWAP2 SWAP1 PUSH2 0xD97 JUMP JUMPDEST SWAP1 POP JUMPDEST PUSH1 0x3 DUP2 LT ISZERO PUSH2 0x991 JUMPI PUSH1 0x1 PUSH0 PUSH1 0x2 DUP4 PUSH1 0x3 DUP2 LT PUSH2 0x79D JUMPI PUSH2 0x79C PUSH2 0xDCA JUMP JUMPDEST JUMPDEST ADD PUSH0 SWAP1 SLOAD SWAP1 PUSH2 0x100 EXP SWAP1 DIV PUSH20 0xFFFFFFFFFFFFFFFFFFFFFFFFFFFFFFFFFFFFFFFF AND PUSH20 0xFFFFFFFFFFFFFFFFFFFFFFFFFFFFFFFFFFFFFFFF AND PUSH20 0xFFFFFFFFFFFFFFFFFFFFFFFFFFFFFFFFFFFFFFFF AND DUP2 MSTORE PUSH1 0x20 ADD SWAP1 DUP2 MSTORE PUSH1 0x20 ADD PUSH0 KECCAK256 SLOAD PUSH1 0x1 PUSH0 PUSH1 0x2 DUP6 PUSH1 0x3 DUP2 LT PUSH2 0x80F JUMPI PUSH2 0x80E PUSH2 0xDCA JUMP JUMPDEST JUMPDEST ADD PUSH0 SWAP1 SLOAD SWAP1 PUSH2 0x100 EXP SWAP1 DIV PUSH20 0xFFFFFFFFFFFFFFFFFFFFFFFFFFFFFFFFFFFFFFFF AND PUSH20 0xFFFFFFFFFFFFFFFFFFFFFFFFFFFFFFFFFFFFFFFF AND PUSH20 0xFFFFFFFFFFFFFFFFFFFFFFFFFFFFFFFFFFFFFFFF AND DUP2 MSTORE PUSH1 0x20 ADD SWAP1 DUP2 MSTORE PUSH1 0x20 ADD PUSH0 KECCAK256 SLOAD LT ISZERO PUSH2 0x984 JUMPI PUSH0 PUSH1 0x2 DUP4 PUSH1 0x3 DUP2 LT PUSH2 0x885 JUMPI PUSH2 0x884 PUSH2 0xDCA JUMP JUMPDEST JUMPDEST ADD PUSH0 SWAP1 SLOAD SWAP1 PUSH2 0x100 EXP SWAP1 DIV PUSH20 0xFFFFFFFFFFFFFFFFFFFFFFFFFFFFFFFFFFFFFFFF AND SWAP1 POP PUSH1 0x2 DUP3 PUSH1 0x3 DUP2 LT PUSH2 0x8BC JUMPI PUSH2 0x8BB PUSH2 0xDCA JUMP JUMPDEST JUMPDEST ADD PUSH0 SWAP1 SLOAD SWAP1 PUSH2 0x100 EXP SWAP1 DIV PUSH20 0xFFFFFFFFFFFFFFFFFFFFFFFFFFFFFFFFFFFFFFFF AND PUSH1 0x2 DUP5 PUSH1 0x3 DUP2 LT PUSH2 0x8F1 JUMPI PUSH2 0x8F0 PUSH2 0xDCA JUMP JUMPDEST JUMPDEST ADD PUSH0 PUSH2 0x100 EXP DUP2 SLOAD DUP2 PUSH20 0xFFFFFFFFFFFFFFFFFFFFFFFFFFFFFFFFFFFFFFFF MUL NOT AND SWAP1 DUP4 PUSH20 0xFFFFFFFFFFFFFFFFFFFFFFFFFFFFFFFFFFFFFFFF AND MUL OR SWAP1 SSTORE POP DUP1 PUSH1 0x2 DUP4 PUSH1 0x3 DUP2 LT PUSH2 0x944 JUMPI PUSH2 0x943 PUSH2 0xDCA JUMP JUMPDEST JUMPDEST ADD PUSH0 PUSH2 0x100 EXP DUP2 SLOAD DUP2 PUSH20 0xFFFFFFFFFFFFFFFFFFFFFFFFFFFFFFFFFFFFFFFF MUL NOT AND SWAP1 DUP4 PUSH20 0xFFFFFFFFFFFFFFFFFFFFFFFFFFFFFFFFFFFFFFFF AND MUL OR SWAP1 SSTORE POP POP JUMPDEST DUP1 DUP1 PUSH1 0x1 ADD SWAP2 POP POP PUSH2 0x77D JUMP JUMPDEST POP DUP1 DUP1 PUSH1 0x1 ADD SWAP2 POP POP PUSH2 0x757 JUMP JUMPDEST POP JUMP JUMPDEST PUSH1 0x40 MLOAD DUP1 PUSH1 0x60 ADD PUSH1 0x40 MSTORE DUP1 PUSH1 0x3 SWAP1 PUSH1 0x20 DUP3 MUL DUP1 CALLDATASIZE DUP4 CALLDATACOPY DUP1 DUP3 ADD SWAP2 POP POP SWAP1 POP POP SWAP1 JUMP JUMPDEST PUSH1 0x40 MLOAD DUP1 PUSH1 0x60 ADD PUSH1 0x40 MSTORE DUP1 PUSH1 0x3 SWAP1 PUSH1 0x20 DUP3 MUL DUP1 CALLDATASIZE DUP4 CALLDATACOPY DUP1 DUP3 ADD SWAP2 POP POP SWAP1 POP POP SWAP1 JUMP JUMPDEST PUSH0 DUP1 REVERT JUMPDEST PUSH0 PUSH20 0xFFFFFFFFFFFFFFFFFFFFFFFFFFFFFFFFFFFFFFFF DUP3 AND SWAP1 POP SWAP2 SWAP1 POP JUMP JUMPDEST PUSH0 PUSH2 0xA13 DUP3 PUSH2 0x9EA JUMP JUMPDEST SWAP1 POP SWAP2 SWAP1 POP JUMP JUMPDEST PUSH2 0xA23 DUP2 PUSH2 0xA09 JUMP JUMPDEST DUP2 EQ PUSH2 0xA2D JUMPI PUSH0 DUP1 REVERT JUMPDEST POP JUMP JUMPDEST PUSH0 DUP2 CALLDATALOAD SWAP1 POP PUSH2 0xA3E DUP2 PUSH2 0xA1A JUMP JUMPDEST SWAP3 SWAP2 POP POP JUMP JUMPDEST PUSH0 PUSH1 0x20 DUP3 DUP5 SUB SLT ISZERO PUSH2 0xA59 JUMPI PUSH2 0xA58 PUSH2 0x9E6 JUMP JUMPDEST JUMPDEST PUSH0 PUSH2 0xA66 DUP5 DUP3 DUP6 ADD PUSH2 0xA30 JUMP JUMPDEST SWAP2 POP POP SWAP3 SWAP2 POP POP JUMP JUMPDEST PUSH0 DUP2 SWAP1 POP SWAP2 SWAP1 POP JUMP JUMPDEST PUSH2 0xA81 DUP2 PUSH2 0xA6F JUMP JUMPDEST DUP3 MSTORE POP POP JUMP JUMPDEST PUSH0 PUSH1 0x20 DUP3 ADD SWAP1 POP PUSH2 0xA9A PUSH0 DUP4 ADD DUP5 PUSH2 0xA78 JUMP JUMPDEST SWAP3 SWAP2 POP POP JUMP JUMPDEST PUSH2 0xAA9 DUP2 PUSH2 0xA6F JUMP JUMPDEST DUP2 EQ PUSH2 0xAB3 JUMPI PUSH0 DUP1 REVERT JUMPDEST POP JUMP JUMPDEST PUSH0 DUP2 CALLDATALOAD SWAP1 POP PUSH2 0xAC4 DUP2 PUSH2 0xAA0 JUMP JUMPDEST SWAP3 SWAP2 POP POP JUMP JUMPDEST PUSH0 PUSH1 0x20 DUP3 DUP5 SUB SLT ISZERO PUSH2 0xADF JUMPI PUSH2 0xADE PUSH2 0x9E6 JUMP JUMPDEST JUMPDEST PUSH0 PUSH2 0xAEC DUP5 DUP3 DUP6 ADD PUSH2 0xAB6 JUMP JUMPDEST SWAP2 POP POP SWAP3 SWAP2 POP POP JUMP JUMPDEST PUSH2 0xAFE DUP2 PUSH2 0xA09 JUMP JUMPDEST DUP3 MSTORE POP POP JUMP JUMPDEST PUSH0 PUSH1 0x20 DUP3 ADD SWAP1 POP PUSH2 0xB17 PUSH0 DUP4 ADD DUP5 PUSH2 0xAF5 JUMP JUMPDEST SWAP3 SWAP2 POP POP JUMP JUMPDEST PUSH0 PUSH1 0x3 SWAP1 POP SWAP2 SWAP1 POP JUMP JUMPDEST PUSH0 DUP2 SWAP1 POP SWAP3 SWAP2 POP POP JUMP JUMPDEST PUSH0 DUP2 SWAP1 POP SWAP2 SWAP1 POP JUMP JUMPDEST PUSH2 0xB43 DUP2 PUSH2 0xA09 JUMP JUMPDEST DUP3 MSTORE POP POP JUMP JUMPDEST PUSH0 PUSH2 0xB54 DUP4 DUP4 PUSH2 0xB3A JUMP JUMPDEST PUSH1 0x20 DUP4 ADD SWAP1 POP SWAP3 SWAP2 POP POP JUMP JUMPDEST PUSH0 PUSH1 0x20 DUP3 ADD SWAP1 POP SWAP2 SWAP1 POP JUMP JUMPDEST PUSH2 0xB75 DUP2 PUSH2 0xB1D JUMP JUMPDEST PUSH2 0xB7F DUP2 DUP5 PUSH2 0xB27 JUMP JUMPDEST SWAP3 POP PUSH2 0xB8A DUP3 PUSH2 0xB31 JUMP JUMPDEST DUP1 PUSH0 JUMPDEST DUP4 DUP2 LT ISZERO PUSH2 0xBBA JUMPI DUP2 MLOAD PUSH2 0xBA1 DUP8 DUP3 PUSH2 0xB49 JUMP JUMPDEST SWAP7 POP PUSH2 0xBAC DUP4 PUSH2 0xB60 JUMP JUMPDEST SWAP3 POP POP PUSH1 0x1 DUP2 ADD SWAP1 POP PUSH2 0xB8D JUMP JUMPDEST POP POP POP POP POP POP JUMP JUMPDEST PUSH0 PUSH1 0x3 SWAP1 POP SWAP2 SWAP1 POP JUMP JUMPDEST PUSH0 DUP2 SWAP1 POP SWAP3 SWAP2 POP POP JUMP JUMPDEST PUSH0 DUP2 SWAP1 POP SWAP2 SWAP1 POP JUMP JUMPDEST PUSH2 0xBE8 DUP2 PUSH2 0xA6F JUMP JUMPDEST DUP3 MSTORE POP POP JUMP JUMPDEST PUSH0 PUSH2 0xBF9 DUP4 DUP4 PUSH2 0xBDF JUMP JUMPDEST PUSH1 0x20 DUP4 ADD SWAP1 POP SWAP3 SWAP2 POP POP JUMP JUMPDEST PUSH0 PUSH1 0x20 DUP3 ADD SWAP1 POP SWAP2 SWAP1 POP JUMP JUMPDEST PUSH2 0xC1A DUP2 PUSH2 0xBC2 JUMP JUMPDEST PUSH2 0xC24 DUP2 DUP5 PUSH2 0xBCC JUMP JUMPDEST SWAP3 POP PUSH2 0xC2F DUP3 PUSH2 0xBD6 JUMP JUMPDEST DUP1 PUSH0 JUMPDEST DUP4 DUP2 LT ISZERO PUSH2 0xC5F JUMPI DUP2 MLOAD PUSH2 0xC46 DUP8 DUP3 PUSH2 0xBEE JUMP JUMPDEST SWAP7 POP PUSH2 0xC51 DUP4 PUSH2 0xC05 JUMP JUMPDEST SWAP3 POP POP PUSH1 0x1 DUP2 ADD SWAP1 POP PUSH2 0xC32 JUMP JUMPDEST POP POP POP POP POP POP JUMP JUMPDEST PUSH0 PUSH1 0xC0 DUP3 ADD SWAP1 POP PUSH2 0xC7A PUSH0 DUP4 ADD DUP6 PUSH2 0xB6C JUMP JUMPDEST PUSH2 0xC87 PUSH1 0x60 DUP4 ADD DUP5 PUSH2 0xC11 JUMP JUMPDEST SWAP4 SWAP3 POP POP POP JUMP JUMPDEST PUSH0 DUP1 PUSH1 0x40 DUP4 DUP6 SUB SLT ISZERO PUSH2 0xCA4 JUMPI PUSH2 0xCA3 PUSH2 0x9E6 JUMP JUMPDEST JUMPDEST PUSH0 PUSH2 0xCB1 DUP6 DUP3 DUP7 ADD PUSH2 0xA30 JUMP JUMPDEST SWAP3 POP POP PUSH1 0x20 PUSH2 0xCC2 DUP6 DUP3 DUP7 ADD PUSH2 0xAB6 JUMP JUMPDEST SWAP2 POP POP SWAP3 POP SWAP3 SWAP1 POP JUMP JUMPDEST PUSH0 DUP3 DUP3 MSTORE PUSH1 0x20 DUP3 ADD SWAP1 POP SWAP3 SWAP2 POP POP JUMP JUMPDEST PUSH32 0x4465706F73697420616D6F756E74206D75737420626520677265617465722074 PUSH0 DUP3 ADD MSTORE PUSH32 0x68616E2030000000000000000000000000000000000000000000000000000000 PUSH1 0x20 DUP3 ADD MSTORE POP JUMP JUMPDEST PUSH0 PUSH2 0xD36 PUSH1 0x25 DUP4 PUSH2 0xCCC JUMP JUMPDEST SWAP2 POP PUSH2 0xD41 DUP3 PUSH2 0xCDC JUMP JUMPDEST PUSH1 0x40 DUP3 ADD SWAP1 POP SWAP2 SWAP1 POP JUMP JUMPDEST PUSH0 PUSH1 0x20 DUP3 ADD SWAP1 POP DUP2 DUP2 SUB PUSH0 DUP4 ADD MSTORE PUSH2 0xD63 DUP2 PUSH2 0xD2A JUMP JUMPDEST SWAP1 POP SWAP2 SWAP1 POP JUMP JUMPDEST PUSH32 0x4E487B7100000000000000000000000000000000000000000000000000000000 PUSH0 MSTORE PUSH1 0x11 PUSH1 0x4 MSTORE PUSH1 0x24 PUSH0 REVERT JUMPDEST PUSH0 PUSH2 0xDA1 DUP3 PUSH2 0xA6F JUMP JUMPDEST SWAP2 POP PUSH2 0xDAC DUP4 PUSH2 0xA6F JUMP JUMPDEST SWAP3 POP DUP3 DUP3 ADD SWAP1 POP DUP1 DUP3 GT ISZERO PUSH2 0xDC4 JUMPI PUSH2 0xDC3 PUSH2 0xD6A JUMP JUMPDEST JUMPDEST SWAP3 SWAP2 POP POP JUMP JUMPDEST PUSH32 0x4E487B7100000000000000000000000000000000000000000000000000000000 PUSH0 MSTORE PUSH1 0x32 PUSH1 0x4 MSTORE PUSH1 0x24 PUSH0 REVERT JUMPDEST PUSH32 0x4F6E6C79206F776E65722063616E2063616C6C20746869732066756E6374696F PUSH0 DUP3 ADD MSTORE PUSH32 0x6E00000000000000000000000000000000000000000000000000000000000000 PUSH1 0x20 DUP3 ADD MSTORE POP JUMP JUMPDEST PUSH0 PUSH2 0xE51 PUSH1 0x21 DUP4 PUSH2 0xCCC JUMP JUMPDEST SWAP2 POP PUSH2 0xE5C DUP3 PUSH2 0xDF7 JUMP JUMPDEST PUSH1 0x40 DUP3 ADD SWAP1 POP SWAP2 SWAP1 POP JUMP JUMPDEST PUSH0 PUSH1 0x20 DUP3 ADD SWAP1 POP DUP2 DUP2 SUB PUSH0 DUP4 ADD MSTORE PUSH2 0xE7E DUP2 PUSH2 0xE45 JUMP JUMPDEST SWAP1 POP SWAP2 SWAP1 POP JUMP JUMPDEST PUSH32 0x576974686472617720616D6F756E74206D757374206265206772656174657220 PUSH0 DUP3 ADD MSTORE PUSH32 0x7468616E20300000000000000000000000000000000000000000000000000000 PUSH1 0x20 DUP3 ADD MSTORE POP JUMP JUMPDEST PUSH0 PUSH2 0xEDF PUSH1 0x26 DUP4 PUSH2 0xCCC JUMP JUMPDEST SWAP2 POP PUSH2 0xEEA DUP3 PUSH2 0xE85 JUMP JUMPDEST PUSH1 0x40 DUP3 ADD SWAP1 POP SWAP2 SWAP1 POP JUMP JUMPDEST PUSH0 PUSH1 0x20 DUP3 ADD SWAP1 POP DUP2 DUP2 SUB PUSH0 DUP4 ADD MSTORE PUSH2 0xF0C DUP2 PUSH2 0xED3 JUMP JUMPDEST SWAP1 POP SWAP2 SWAP1 POP JUMP JUMPDEST PUSH32 0x496E73756666696369656E7420636F6E74726163742062616C616E6365000000 PUSH0 DUP3 ADD MSTORE POP JUMP JUMPDEST PUSH0 PUSH2 0xF47 PUSH1 0x1D DUP4 PUSH2 0xCCC JUMP JUMPDEST SWAP2 POP PUSH2 0xF52 DUP3 PUSH2 0xF13 JUMP JUMPDEST PUSH1 0x20 DUP3 ADD SWAP1 POP SWAP2 SWAP1 POP JUMP JUMPDEST PUSH0 PUSH1 0x20 DUP3 ADD SWAP1 POP DUP2 DUP2 SUB PUSH0 DUP4 ADD MSTORE PUSH2 0xF74 DUP2 PUSH2 0xF3B JUMP JUMPDEST SWAP1 POP SWAP2 SWAP1 POP JUMP JUMPDEST PUSH0 PUSH2 0xF85 DUP3 PUSH2 0xA6F JUMP JUMPDEST SWAP2 POP PUSH2 0xF90 DUP4 PUSH2 0xA6F JUMP JUMPDEST SWAP3 POP DUP3 DUP3 SUB SWAP1 POP DUP2 DUP2 GT ISZERO PUSH2 0xFA8 JUMPI PUSH2 0xFA7 PUSH2 0xD6A JUMP JUMPDEST JUMPDEST SWAP3 SWAP2 POP POP JUMP INVALID LOG2 PUSH5 0x6970667358 0x22 SLT KECCAK256 LOG4 0xF6 JUMPI DIV 0xBF CODESIZE PUSH11 0x8FB6687260370E672766FB MUL DUP13 SWAP16 0xDA 0xFC SWAP4 0xE9 0x29 0xBC DUP2 STOP MULMOD DUP9 SWAP10 PUSH5 0x736F6C6343 STOP ADDMOD BYTE STOP CALLER "
				},
				"gasEstimates": {
					"creation": {
						"codeDepositCost": "813600",
						"executionCost": "25114",
						"totalCost": "838714"
					},
					"external": {
						"balances(address)": "2780",
						"deposit()": "infinite",
						"getTopDepositUsers()": "infinite",
						"owner()": "2527",
						"topDepositUsers(uint256)": "2795",
						"withdraw(address,uint256)": "infinite"
					},
					"internal": {
						"sortTopUsers()": "infinite",
						"updateTopUsers(address)": "infinite"
					}
				},
				"methodIdentifiers": {
					"balances(address)": "27e235e3",
					"deposit()": "d0e30db0",
					"getTopDepositUsers()": "b986363e",
					"owner()": "8da5cb5b",
					"topDepositUsers(uint256)": "836c4bd9",
					"withdraw(address,uint256)": "f3fef3a3"
				}
			},
			"storageLayout": {
				"storage": [
					{
						"astId": 3,
						"contract": "src/Bank.sol:Bank",
						"label": "owner",
						"offset": 0,
						"slot": "0",
						"type": "t_address"
					},
					{
						"astId": 7,
						"contract": "src/Bank.sol:Bank",
						"label": "balances",
						"offset": 0,
						"slot": "1",
						"type": "t_mapping(t_address,t_uint256)"
					},
					{
						"astId": 11,
						"contract": "src/Bank.sol:Bank",
						"label": "topDepositUsers",
						"offset": 0,
						"slot": "2",
						"type": "t_array(t_address)3_storage"
					}
				],
				"types": {
					"t_address": {
						"encoding": "inplace",
						"label": "address",
						"numberOfBytes": "20"
					},
					"t_array(t_address)3_storage": {
						"base": "t_address",
						"encoding": "inplace",
						"label": "address[3]",
						"numberOfBytes": "96"
					},
					"t_mapping(t_address,t_uint256)": {
						"encoding": "mapping",
						"key": "t_address",
						"label": "mapping(address => uint256)",
						"numberOfBytes": "32",
						"value": "t_uint256"
					},
					"t_uint256": {
						"encoding": "inplace",
						"label": "uint256",
						"numberOfBytes": "32"
					}
				}
			},
			"userdoc": {
				"kind": "user",
				"methods": {},
				"version": 1
			}
		}
	}
}